:020000040800F2
:1000000000000220F1150008AD130008AF1300082E
:10001000B1130008B3130008B51300080000000076
:10002000000000000000000000000000212F000878
:10003000B713000800000000C12F00082530000899
:100040004116000841160008411600084116000834
:100050004116000841160008411600084116000824
:100060004116000841160008411600084116000814
:100070004116000841160008411600084116000804
:100080004116000841160008411600080000000053
:100090000000000000000000000000004116000801
:1000A00041160008B913000841160008411600085F
:1000B00041160008411600084116000841160008C4
:1000C00041160008411600084116000841160008B4
:1000D00041160008C913000841160008000000007E
:1000E00041160008411600084116000800000000F3
:1000F00000000000000000000000000041160008A1
:1001000000000000411600084116000841160008D2
:1001100000000000000000000000000000000000DF
:100120004116000841160008411600084116000853
:100130004116000800000000000000000000000060
:100140000000000000000000000000004116000850
:100150004116000841160008411600084116000823
:1001600041160008411600080000000000000000D1
:10017000000000000000000000000000000000007F
:100180000000000041160008000000000000000010
:080190004116000841160008A9
:1001C00010B5054C237833B9044B13B10448AFF391
:1001D00000800123237010BD4404002000000000B3
:1001E0008C3D000808B5034B1BB103490348AFF32E
:1001F000008008BD00000000480400208C3D00087D
:1002000053B94AB9002908BF00281CBF4FF0FF317D
:100210004FF0FF3000F074B9ADF1080C6DE904CE79
:1002200000F006F8DDF804E0DDE9022304B07047D1
:100230002DE9F047089D04468E46002B4DD18A4299
:10024000944669D9B2FA82F252B101FA02F3C2F1CC
:10025000200120FA01F10CFA02FC41EA030E94405D
:100260004FEA1C48210CBEFBF8F61FFA8CF708FB7E
:1002700016E341EA034306FB07F199420AD91CEB56
:10028000030306F1FF3080F01F81994240F21C8188
:10029000023E63445B1AA4B2B3FBF8F008FB1033D0
:1002A00044EA034400FB07F7A7420AD91CEB040405
:1002B00000F1FF3380F00A81A74240F207816444D5
:1002C000023840EA0640E41B00261DB1D44000235A
:1002D000C5E900433146BDE8F0878B4209D9002DBE
:1002E00000F0EF800026C5E9000130463146BDE848
:1002F000F087B3FA83F6002E4AD18B4202D38242B2
:1003000000F2F980841A61EB030301209E46002D60
:10031000E0D0C5E9004EDDE702B9FFDEB2FA82F2B5
:10032000002A40F09280A1EB0C014FEA1C471FFA13
:100330008CFE0126200CB1FBF7F307FB131140EAFA
:1003400001410EFB03F0884208D91CEB010103F1C7
:10035000FF3802D2884200F2CB804346091AA4B289
:10036000B1FBF7F007FB101144EA01440EFB00FE5D
:10037000A64508D91CEB040400F1FF3102D2A645C2
:1003800000F2BB800846A4EB0E0440EA03409CE761
:10039000C6F12007B34022FA07FC4CEA030C20FA0E
:1003A00007F401FA06F31C43F9404FEA1C4900FA2E
:1003B00006F3B1FBF9F8200C1FFA8CFE09FB1811AB
:1003C00040EA014108FB0EF0884202FA06F20BD91E
:1003D0001CEB010108F1FF3A80F08880884240F26E
:1003E0008580A8F102086144091AA4B2B1FBF9F0B2
:1003F00009FB101144EA014100FB0EFE8E4508D9AD
:100400001CEB010100F1FF346CD28E456AD9023831
:10041000614440EA0840A0FB0294A1EB0E01A14216
:10042000C846A64656D353D05DB1B3EB080261EB84
:100430000E0101FA07F722FA06F3F1401F43C5E95E
:10044000007100263146BDE8F087C2F12003D84094
:100450000CFA02FC21FA03F3914001434FEA1C47D6
:100460001FFA8CFEB3FBF7F007FB10360B0C43EAC8
:10047000064300FB0EF69E4204FA02F408D91CEB78
:10048000030300F1FF382FD29E422DD90238634476
:100490009B1B89B2B3FBF7F607FB163341EA034116
:1004A00006FB0EF38B4208D91CEB010106F1FF3865
:1004B00016D28B4214D9023E6144C91A46EA00465C
:1004C00038E72E46284605E70646E3E61846F8E6EE
:1004D0004B45A9D2B9EB020864EB0C0E0138A3E737
:1004E0004646EAE7204694E74046D1E7D0467BE718
:1004F000023B614432E7304609E76444023842E790
:10050000704700BF00000000000000000000000075
:1005100000000000000000000000000000000000DB
:1005200000000000000000000000000000000000CB
:1005300000000000000000000000000000000000BB
:1005400090F800F06DE9024520F007016FF0000C13
:1005500010F0070491F820F040F049804FF00004BB
:100560006FF00700D1E9002391F840F000F1080096
:1005700082FA4CF2A4FA8CF283FA4CF3A2FA8CF3CE
:100580004BBBD1E9022382FA4CF200F10800A4FA35
:100590008CF283FA4CF3A2FA8CF3E3B9D1E9042389
:1005A00082FA4CF200F10800A4FA8CF283FA4CF3C0
:1005B000A2FA8CF37BB9D1E9062301F1200182FA7A
:1005C0004CF200F10800A4FA8CF283FA4CF3A2FA80
:1005D0008CF3002BC6D0002A04BF04301A4612BA8E
:1005E000B2FA82F2FDE8024500EBD2007047D1E991
:1005F000002304F00305C4F100004FEAC50514F020
:10060000040F91F840F00CFA05F562EA05021CBFF0
:1006100063EA050362464FF00004A9E708B580B21B
:1006200000F030FF08BD000000B587B00023019343
:10063000029303930493059301230193029301A969
:10064000024801F0F5F807B05DF804FB0000024035
:1006500000B587B00023019302930393049305939D
:100660000123019301A9034801F0E2F807B05DF806
:1006700004FB00BF0000024010B5FFF7D5FF094C96
:1006800000220121204601F0BAF9142001F006F8F9
:1006900001221146204601F0B2F91E20FFF7BEFFED
:1006A00010BD00BF0000024010B5FFF7D1FF0024CD
:1006B0000121124801F09CF938B1632C05D80134AE
:1006C000E4B20120FFF7AAFFF2E7632C11D800245F
:1006D00004E00134E4B20120FFF7A0FF0121074844
:1006E00001F086F908B9632CF3D9632C03D80020F4
:1006F00010BD0120FCE70120FAE700BF0000024026
:1007000038B5002504E00135EDB20120FFF786FF82
:1007100001210F4801F06CF9044640B1632DF2D974
:10072000002404E00134E4B20120FFF777FF012147
:10073000074801F05DF908B9632CF3D92820FFF7C9
:100740006DFF0121024801F053F900B1012038BDCD
:100750000000024038B50020054607E04000C4B262
:10076000FFF7CEFF2043C0B20135EDB2072DF5D91A
:1007700038BD30B583B00546FFF77EFFFFF794FF25
:10078000044658B1002003B030BDFFF7E3FF04F189
:1007900008036B4403F8080C0134E4B2042CF4D9C8
:1007A0009DF800409DF8010023189DF802100B44AD
:1007B0009DF8032013449DF804C0634501D0012037
:1007C000E1E72C706870A970EA70F8E708B510E0EE
:1007D0000A2000F063FF40210E4801F009F90128CA
:1007E000F6D00D4A137883F001031370012002F054
:1007F000F5FA4021074801F0FBF80128F6D10A205C
:1008000000F04CFF4021034801F0F2F80128EDD13F
:10081000E1E700BF000002400000002030B585B0D5
:1008200016E031238DF80C3020238DF80D300D2388
:100830008DF80E300A238DF80F304FF47A731022A2
:1008400069462D4802F053F84FF4FA7002F0C6FAE8
:100850002A4C2046FFF78DFF2178294BA3FB01523C
:10086000D20802F130058DF8005002EB8202A1EBB4
:10087000420230328DF801204FF02E0E8DF802E04A
:100880006178A3FB0152D20802F130058DF80350C4
:1008900002EB8202A1EB420230328DF804204FF0CD
:1008A000200C8DF805C0A178A3FB0152D20802F1FB
:1008B00030058DF8065002EB8202A1EB4202303285
:1008C0008DF807208DF808E0E278A3FB0213DB081F
:1008D00003F130018DF8091003EB8303A2EB43030E
:1008E00030338DF80A308DF80BC0012899D13023B0
:1008F0008DF80C3098E700BF5807002068040020EE
:10090000CDCCCCCC034B0360034B0B608023136036
:10091000704700BF740600207404002010B596B024
:100920001B4C0DF13C0CA646BEE80F00ACE80F00D6
:100930009EE807008CE8070000210FA802F019FAD2
:10094000144B18600DF1200C04F11C0EBEE80F00D2
:10095000ACE80F009EE807008CE80700002108A81B
:1009600002F007FA0C4B18600DF1040E04F1380C7C
:10097000BCE80F00AEE80F009CE807008EE8070017
:10098000002101A802F0F5F9044B186016B010BD63
:10099000A43D0008700400206004002064040020CE
:1009A00038B50C46092800F2AF81DFE810F00A00E4
:1009B0003C0065008E00B700E000090132015B01D8
:1009C000840100224FF48071EA4801F018F8EA4DE2
:1009D00000224FF48061284601F011F80022102116
:1009E000284601F00CF800222021284601F007F8E3
:1009F00000220221284601F002F800224FF40041B3
:100A0000284600F0FCFF01224FF48041284600F008
:100A1000F6FF002C40F0A78101224FF40051D64888
:100A200000F0EDFF38BD01224FF48071D14800F095
:100A3000E6FFD14D00224FF48061284600F0DFFF31
:100A400000221021284600F0DAFF0122202128464A
:100A500000F0D5FF01220221284600F0D0FF01223C
:100A60004FF40041284600F0CAFF01224FF48041B4
:100A7000284600F0C4FFCCE700224FF48071BD4847
:100A800000F0BDFFBC4D00224FF48061284600F00D
:100A9000B6FF01221021284600F0B1FF00222021DC
:100AA000284600F0ACFF00220221284600F0A7FFF4
:100AB00001224FF40041284600F0A1FF00224FF42C
:100AC0008041284600F09BFFA3E700224FF480718D
:100AD000A84800F094FFA84D00224FF480612846FA
:100AE00000F08DFF00221021284600F088FF002230
:100AF0002021284600F083FF01220221284600F031
:100B00007EFF01224FF40041284600F078FF0022CA
:100B10004FF48041284600F072FF7AE701224FF43B
:100B20008071944800F06BFF934D00224FF4806178
:100B3000284600F064FF00221021284600F05FFFE5
:100B400001222021284600F05AFF012202212846D6
:100B500000F055FF00224FF40041284600F04FFFFF
:100B600000224FF48041284600F049FF51E700225F
:100B70004FF480717F4800F042FF7F4D01224FF417
:100B80008061284600F03BFF00221021284600F03B
:100B900036FF00222021284600F031FF01220221E9
:100BA000284600F02CFF00224FF40041284600F0B8
:100BB00026FF00224FF48041284600F020FF28E75E
:100BC00000224FF480716B4800F019FF6A4D01223A
:100BD0004FF48061284600F012FF002210212846C1
:100BE00000F00DFF00222021284600F008FF00221F
:100BF0000221284600F003FF00224FF4004128465E
:100C000000F0FDFE00224FF48041284600F0F7FE80
:100C1000FFE600224FF48071564800F0F0FE564D7A
:100C200000224FF48061284600F0E9FE00221021E6
:100C3000284600F0E4FE01222021284600F0DFFED5
:100C400001220221284600F0DAFE01224FF4004181
:100C5000284600F0D4FE01224FF48041284600F0DF
:100C6000CEFED6E600224FF48071424800F0C7FE67
:100C7000414D00224FF48061284600F0C0FE002262
:100C80001021284600F0BBFE00222021284600F05B
:100C9000B6FE00220221284600F0B1FE00224FF4E9
:100CA0000041284600F0ABFE00224FF48041284668
:100CB00000F0A5FEADE600224FF480712D4800F053
:100CC0009EFE2D4D00224FF48061284600F097FED5
:100CD00000221021284600F092FE00222021284602
:100CE00000F08DFE01220221284600F088FE00223D
:100CF0004FF40041284600F082FE00224FF480416C
:100D0000284600F07CFE84E600224FF480711948EA
:100D100000F075FE184D00224FF48061284600F067
:100D20006EFE00221021284600F069FE00222021DC
:100D3000284600F064FE00220221284600F05FFEF3
:100D400000224FF40041284600F059FE00224FF4E3
:100D50008041284600F053FE01224FF400512846FE
:100D600000F04DFE55E600224FF40051024800F01D
:100D700046FE57E600000240000402402DE9F04F15
:100D800083B0A54C214602F057FF054621460020BE
:100D900002F052FF81462846FFF7D2FB83464846C1
:100DA000FFF7CEFB04462B18042B18D0BBF1040F21
:100DB0000FD0002305F80B30CBF1040209F8023004
:100DC0000BF1FF33032B00F20081DFE803F0E9D5DC
:100DD0003516CBF10403002209F80320F0E7C0F137
:100DE00004023021284602F0D5FECBF10402302166
:100DF00009EB040002F0CEFEE2E795F80080A8F1CE
:100E000030086F78303FAE78303EED78303D99F85D
:100E10000030302B08D04FF001094FF0000ACDF818
:100E200004A0CDF800A01AE04FF00009CA46CDF8A2
:100E30000490CDF8009012E095F80080A8F13008F9
:100E40006F78303FAE78303E99F80350303D4FF028
:100E500000094FF0010ACDF80490CDF800905C44F1
:100E6000032C40F3BE80DFF8B8B101224FF40071CB
:100E7000584600F0C4FD00224FF48071674800F02E
:100E8000BEFD00224FF48071584600F0B8FD0022EC
:100E90004021584600F0B3FD00994046FFF780FD21
:100EA000042001F09BFF022C40F3A280DFF8708148
:100EB00000224FF40071404600F0A1FD01224FF4E2
:100EC0008071564800F09BFD00224FF4807140462F
:100ED00000F095FD00224021404600F090FD019970
:100EE0003846FFF75DFD042001F078FF012C40F348
:100EF00086804B4F00224FF40071384600F07FFD92
:100F000000224FF48071454800F079FD01224FF432
:100F10008071384600F073FD00224021384600F011
:100F20006EFD51463046FFF73BFD042001F056FFB1
:100F3000002C6BDD3A4C00224FF40071204600F08B
:100F40005EFD00224FF48071344800F058FD00220D
:100F50004FF48071204600F052FD012240212046CE
:100F600000F04DFD49462846FFF71AFD022001F02A
:100F700035FF03B0BDE8F08F95F80080A8F1300888
:100F80006F78303F99F80060303E99F80150303D5D
:100F90004FF00009CA4601230193CDF800905EE7A7
:100FA00095F80080A8F1300899F80070303F99F862
:100FB0000160303E99F80250303D4FF00009CA46BA
:100FC000CDF804900123009349E74FF00009CA4689
:100FD000CDF80490CDF800904D464E464F46C84699
:100FE0003DE700224FF400710D4800F008FD57E77F
:100FF00000224FF48071094800F001FD73E70022E0
:101000004FF48071064800F0FAFC8EE70022402180
:10101000034800F0F4FCA9E7143E00080004024075
:101020000008024000B583B02BE02B480178A3F103
:101030003333A3FB01C2D20802F1300C8DF800C09B
:1010400002EB82024FEA420CA1EB0C0130318DF829
:1010500001102E228DF802204278A3FB0213DB0838
:1010600003F130018DF8031003EB83035900521A8A
:1010700030328DF804206846FFF780FE012001F031
:10108000ADFE164B1B78002BCFD013488178144B44
:10109000A3FB01C2D20802F1300C8DF800C002EBB4
:1010A00082024FEA420CA1EB0C0130318DF80110A5
:1010B0002E228DF80220C278A3FB0213DB0803F175
:1010C00030018DF8031003EB83035900521A3032BC
:1010D0008DF80420CFE700BF680400200000002046
:1010E000CDCCCCCC2DE9F0418AB0002405940694F7
:1010F0000794089409940194394B1A6B42F0040246
:101100001A631A6B02F004020192019A02941A6B9C
:1011100042F080021A631A6B02F080020292029A75
:1011200003941A6B42F001021A631A6B02F0010277
:101130000392039A04941A6B42F002021A631B6B27
:1011400003F002030493049B264F224640F24131F0
:10115000384600F054FC244E22464FF4907130463D
:1011600000F04DFCDFF8848022464EF232514046BA
:1011700000F045FC4FF4005305934FF4041306931D
:10118000079405A9384600F053FB40F2413305931C
:10119000012506950794089405A9384600F048FBF8
:1011A0004FF49073059306950794089405A930466B
:1011B00000F03EFB402305930694079405A93046B2
:1011C00000F036FB4EF232530593069507940894CF
:1011D00005A9404600F02CFB0AB0BDE8F08100BF35
:1011E00000380240000802400000024000040240B3
:1011F00008B50268034B9A4200D008BD00F03CFAE3
:10120000FBE700BF0000014072B6FEE700B595B0F5
:101210003022002108A802F0BDFC002303930493B0
:1012200005930693079301931E4A116C41F0805178
:101230001164126C02F080520192019A02931A4AD0
:10124000116841F440411160126802F44042029278
:10125000029A0221089101220B9210220C920E9107
:101260000F9310924FF4A8731193042312931393C6
:1012700008A800F0CBFB80B90F230393022104914F
:10128000002305934FF480520692079303A800F0C1
:1012900023FE20B915B05DF804FBFFF7B5FFFFF79B
:1012A000B3FF00BF003802400070004008B500F0F6
:1012B000C9F9FFF7ABFFFFF715FF00F017F900F0D2
:1012C00095F800F0F9F8FFF729FB01F04DFDFEE776
:1012D00000B583B0002200920D4B596C41F480415F
:1012E0005964596C01F48041009100990192196C84
:1012F00041F0805119641B6C03F080530193019BF2
:101300000F216FF0010000F0EFF903B05DF804FB6E
:101310000038024030B589B00546002401941E4BC8
:101320005A6C42F001025A645B6C03F001030193B2
:10133000019B02A903A800F0A5FE00F093FE03465E
:101340001648A0FB03239B0C013B1548154A02607D
:1013500040F2E732C260436004618460846101F05E
:1013600075F8044610B1204609B030BD0C4800F0B5
:1013700021FF04460028F6D1192000F0EDF90F2DC9
:1013800001D90124EFE700222946192000F0ACF929
:10139000054B1D60E7E700BF0038024083DE1B43BA
:1013A000C8060020000001400C000020FEE7FEE718
:1013B000FEE7FEE7FEE7704708B5024800F03AFF97
:1013C00008BD00BFC806002008B5024801F086FB32
:1013D00008BD00BF58070020034AD2F8883043F404
:1013E0007003C2F88830704700ED00E000B587B0A8
:1013F00000230293039304930593009301931548EC
:101400004FF0804202605322426083604FF0FF320F
:10141000C2600361836101F019F890B94FF4805301
:10142000029302A90B4801F04AF868B9002300931F
:1014300001936946074801F0C1F840B907B05DF86B
:1014400004FBFFF7E1FEE9E7FFF7DEFEEEE7FFF75B
:10145000DBFEF3E7100700200368B3F1804F00D0F4
:10146000704782B000230193054B1A6C42F00102D1
:101470001A641B6C03F001030193019B02B07047D7
:101480000038024010B5C0F57F44FA34A4B20948D0
:1014900003685C6200F044FE03E0064B1B685C6A74
:1014A000A4B24FF6F8739C42F7D9024800F06EFEE2
:1014B00010BD00BF1007002008B50A480A4B0360A2
:1014C0004FF4E133436000238360C36003610C2267
:1014D00042618361C36101F0DBF900B908BDFFF728
:1014E00093FEFBE7580700200010014008B50A48AA
:1014F0000A4B03604FF4E133436000238360C36011
:1015000003610C2242618361C36101F0C1F900B93A
:1015100008BDFFF779FEFBE79C0700200044004070
:1015200010B58AB000230593069307930893099397
:1015300003682B4A934204D02A4A93422DD00AB022
:1015400010BD00240194284B5A6C42F010025A64DA
:101550005A6C02F010020192019A02941A6B42F046
:1015600001021A631B6B03F001030293029B4FF409
:10157000C06305930223069303230893072309936B
:1015800005A91A4800F054F922460521252000F04B
:10159000ABF8252000F0E0F8D1E700210391124BD1
:1015A0001A6C42F400321A641A6C02F4003203928C
:1015B000039A04911A6B42F001021A631B6B03F049
:1015C00001030493049B0C23059302230693032336
:1015D00008930723099305A9044800F029F9AEE709
:1015E000001001400044004000380240000002406A
:1015F000DFF834D00D480E490E4A002302E0D458DB
:10160000C4500433C4188C42F9D30B4A0B4C00234A
:1016100001E013600432A242FBD3FFF7DDFE02F0CB
:1016200095FAFFF743FE70470000022000000020FB
:1016300044040020503E0008440400203C450020A3
:10164000FEE7000008B50B4B1A6842F400721A60FE
:101650001A6842F480621A601A6842F480721A6052
:10166000032000F02FF80F20FFF754FEFFF730FEA5
:10167000002008BD003C0240034A1168034B1B7860
:101680000B441360704700BFE007002008000020F3
:10169000014B1868704700BFE007002038B50446CA
:1016A000FFF7F6FF0546B4F1FF3F02D0044B1B786D
:1016B0001C44FFF7EDFF401BA042FAD338BD00BF2A
:1016C00008000020074AD36823F4E0631B041B0CC6
:1016D000000200F4E060034343F0BF6343F40033CF
:1016E000D360704700ED00E000B5194BDB68C3F331
:1016F0000223C3F1070CBCF1040F28BF4FF0040C08
:1017000003F1040EBEF1060F18D9033B4FF0FF3E64
:101710000EFA0CFC21EA0C0199400EFA03F322EABE
:101720000303194300280BDB0901C9B200F1604033
:1017300000F5614080F800135DF804FB0023E5E745
:1017400000F00F000901C9B2024B1954F4E700BFC1
:1017500000ED00E014ED00E0002807DB00F01F02C0
:10176000400901239340024A42F82030704700BFED
:1017700000E100E070B50446866DFFF789FF94F83C
:101780003530DBB2022B06D080236365002384F85A
:101790003430012070BD05462268136823F016031B
:1017A00013602268536923F080035361236CE3B113
:1017B0002268136823F0080313602268136823F07B
:1017C0000103136023681B6813F0010F11D0FFF7AA
:1017D0005FFF431B052BF5D920236365032084F8A5
:1017E0003500002384F83430D4E7A36C002BDFD11C
:1017F000E3E7E26D3F239340B360012384F8353083
:10180000002084F83400C5E790F83530DBB2022BB5
:1018100003D08023436501207047052380F83530CD
:101820000268136823F00103136000207047000072
:1018300000230F2B00F2D28070B582B060E0856883
:101840005E000324B44025EA0405CC68B4402C4370
:101850008460456825EA02054C68C4F300129A408A
:101860002A4342605AE0DC08083450F8246003F050
:10187000070295000F22AA4026EA020E0A69AA4032
:1018800042EA0E0240F824205CE0042200E000223C
:1018900002FA0EF22A430234514D45F82420514AEF
:1018A00094686FEA0C0224EA0C054E6816F4801F57
:1018B00001D04CEA04054B4CA560E46802EA04053B
:1018C0004E6816F4001F01D04CEA0405454CE56053
:1018D000646802EA04054E6816F4003F01D04CEA41
:1018E0000405404C6560246822404D6815F4803F33
:1018F00001D04CEA04023B4C226001330F2B6BD821
:1019000001229A400C6804EA020C32EA0404F4D181
:101910004C6804F00304013C012C90D94A6802F0A1
:101920000302032A09D0C4685D000322AA4024EA06
:1019300002048A68AA402243C2604A6802F0030295
:10194000022A90D004684FEA430E032202FA0EF2F4
:1019500024EA02044A6802F0030202FA0EF2224369
:1019600002604A6812F4403FC7D0002201921E4A2A
:10197000546C44F480445464526C02F480420192EA
:10198000019A9C08A51C164A52F8255003F0030240
:101990004FEA820E0F2202FA0EF225EA0205134ADE
:1019A00090423FF474AF02F5806290420ED002F58F
:1019B000806290420CD002F5806290420AD002F51B
:1019C000806290423FF461AF072261E701225FE746
:1019D00002225DE703225BE702B070BD704700BFE3
:1019E00000380140003C0140003802400000024045
:1019F0000369194201D001207047002070470AB1E5
:101A0000816170470904816170470000002800F07F
:101A1000E08170B582B00446036813F0010F3BD03B
:101A20009F4B9B6803F00C03042B2CD09C4B9B68B2
:101A300003F00C03082B21D06368B3F5803F4FD02F
:101A4000B3F5A02F52D0964B1A6822F480321A6058
:101A50001A6822F480221A606368002B50D0FFF7C6
:101A600017FE05468E4B1B6813F4003F14D1FFF799
:101A70000FFE401B6428F5D90320B1E1884B5B6859
:101A800013F4800FD8D0864B1B6813F4003F03D0AB
:101A90006368002B00F09F81236813F0020F54D07D
:101AA0007F4B9B6813F00C0F3ED07D4B9B6803F07F
:101AB0000C03082B33D0E368002B68D0794B01224C
:101AC0001A60FFF7E5FD0546754B1B6813F0020F22
:101AD00054D1FFF7DDFD401B0228F5D903207FE13B
:101AE0006F4A136843F480331360B5E76C4B1A6890
:101AF00042F480221A601A6842F480321A60ABE71E
:101B0000FFF7C6FD0546664B1B6813F4003FC3D0C4
:101B1000FFF7BEFD401B6428F5D9032060E1604B50
:101B20005B6813F4800FC6D15D4B1B6813F0020F86
:101B300003D0E368012B40F05081594A136823F029
:101B4000F803216943EAC1031360236813F0080F07
:101B500042D063696BB3534B0122C3F8802EFFF769
:101B600097FD05464E4B5B6F13F0020F34D1FFF724
:101B70008FFD401B0228F5D9032031E1484A136844
:101B800023F0F803216943EAC1031360DDE7454B05
:101B900000221A60FFF77CFD0546414B1B6813F0DD
:101BA000020FD2D0FFF774FD401B0228F5D90320A5
:101BB00016E13C4B0022C3F8802EFFF769FD054675
:101BC000374B5B6F13F0020F06D0FFF761FD401B30
:101BD0000228F5D9032003E1236813F0040F77D01E
:101BE0002F4B1B6C13F0805F33D1002301932C4BE0
:101BF0001A6C42F080521A641B6C03F080530193FC
:101C0000019B0125284B1B6813F4807F23D0A36818
:101C1000012B34D0052B38D0214B1A6F22F0010252
:101C20001A671A6F22F004021A67A368002B3DD0CE
:101C3000FFF72EFD06461A4B1B6F13F0020F46D11D
:101C4000FFF726FD801B41F288339842F3D9032029
:101C5000C6E00025D6E7144A136843F48073136086
:101C6000FFF716FD0646104B1B6813F4807FCED19C
:101C7000FFF70EFD801B0228F5D90320B0E0084ACB
:101C8000136F43F001031367CFE7054B1A6F42F060
:101C900004021A671A6F42F001021A67C5E700BF13
:101CA000003802400000474200700040FFF7F0FC9F
:101CB0000646524B1B6F13F0020F08D0FFF7E8FCEB
:101CC000801B41F288339842F3D9032088E0EDB9B4
:101CD000A369002B00F08380484A926802F00C024E
:101CE000082A51D0022B17D0454B00221A66FFF765
:101CF000CFFC0446414B1B6813F0007F42D0FFF736
:101D0000C7FC001B0228F5D9032069E03B4A136C8D
:101D100023F080531364DBE7394B00221A66FFF788
:101D2000B7FC0546354B1B6813F0007F06D0FFF764
:101D3000AFFC401B0228F5D9032051E0E369226A79
:101D40001343626A43EA8213A26A5208013A43EAE1
:101D50000243E26A43EA0263284A5360284B0122A5
:101D60001A66FFF795FC0446244B1B6813F0007FAE
:101D700006D1FFF78DFC001B0228F5D903202FE0C8
:101D800000202DE000202BE0012B2BD01B4B5B68AB
:101D900003F48001E269914226D103F03F02216AF7
:101DA0008A4223D1616A47F6C0721A40B2EB811FA2
:101DB0001ED103F44031A26A5208013AB1EB024F3E
:101DC00018D103F07063E26AB3EB026F14D1002004
:101DD00006E001207047012002E0012000E0002021
:101DE00002B070BD0120FBE70120F9E70120F7E711
:101DF0000120F5E70120F3E70120F1E70038024078
:101E00000000474208B5314B9B6803F00C03042BDC
:101E100057D0082B57D12D4B5A6802F03F025B6810
:101E200013F4800F2AD0294B5968C1F3881C4FEA5C
:101E30004C11B1EB0C006EEB0E0E4FEA8E1343EA21
:101E400090638101091A63EB0E03DB0043EA5173CF
:101E5000C90011EB0C0C43F10003590200234FEAB7
:101E60004C2041EADC51FEF7CBF9184B5B68C3F319
:101E7000014301335B00B0FBF3F025E0134B5968DD
:101E8000C1F3881C4FEA4C11B1EB0C006EEB0E0E47
:101E90004FEA8E1343EA90638101091A63EB0E0344
:101EA000DB0043EA5173C90011EB0C0C43F1000352
:101EB000990200234FEA8C2041EA9C51FEF7A0F9D9
:101EC000D3E7034800E0034808BD00BF00380240E4
:101ED00000127A000024F400002800F09B8070B506
:101EE0000D4604464F4B1B6803F007038B4208D294
:101EF000CBB24C4A1370136803F007038B4240F0D7
:101F00008B80236813F0020F17D013F0040F04D056
:101F1000454A936843F4E0539360236813F0080F35
:101F200004D0414A936843F4604393603E4A936807
:101F300023F0F003A1680B439360236813F0010FB3
:101F400032D06368012B21D09A1E012A25D9364A46
:101F5000126812F0020F61D033498A6822F003023E
:101F600013438B60FFF794FB06462F4B9B6803F0EF
:101F70000C036268B3EB820F16D0FFF789FB801B5E
:101F800041F288339842F0D9032042E0264A126891
:101F900012F4003FE0D101203BE0234A126812F026
:101FA000007FD9D1012034E01E4B1B6803F00703EA
:101FB000AB4207D9EAB21B4B1A701B6803F0070348
:101FC000AB422DD1236813F0040F06D0164A936854
:101FD00023F4E053E1680B439360236813F0080F88
:101FE00007D0114A936823F46043216943EAC1038F
:101FF0009360FFF707FF0C4B9B68C3F303130B4A77
:10200000D35CD8400A4B18600A4B1868FFF782F976
:10201000002070BD012070470120FAE70120F8E799
:102020000120F6E7003C024000380240183E00085C
:10203000040000200C000020014B1868704700BF0E
:102040000400002008B5FFF7F7FF044B9B68C3F3BB
:102050008223034AD35CD84008BD00BF0038024049
:10206000283E000808B5FFF7E7FF044B9B68C3F361
:102070004233034AD35CD84008BD00BF0038024059
:10208000283E00080F2303600B4B9A6802F00302FE
:1020900042609A6802F0F00282609A6802F4E052AC
:1020A000C2609B68DB0803F4E0530361034B1B68C9
:1020B00003F007030B60704700380240003C024009
:1020C00010B4036A046A24F001040462846924F0F1
:1020D000F00C4CEA021223F00A030B438261036204
:1020E0005DF8044B704710B4046A24F010040462D5
:1020F0008469036A24F4704C4CEA023223F0A00392
:1021000043EA0113826103625DF8044B7047836800
:1021100023F070030B4343F0070383607047000014
:1021200090F83D30DBB2012B2AD1022380F83D30FC
:102130000368154A934218D0B3F1804F15D0A2F529
:102140007C42934211D002F5806293420DD002F599
:102150008062934209D002F59A32934205D01A6800
:1021600042F001021A60002070479A6802F00702EC
:10217000062A07D01A6842F001021A600020704750
:102180000120704700207047000001400368196A71
:1021900041F21112114208D1196A40F2444211422F
:1021A00003D11A6822F001021A60012380F83D3041
:1021B0000020704790F83D30DBB2012B2FD1022375
:1021C00080F83D300268D36843F00103D3600368B0
:1021D000154A934218D0B3F1804F15D0A2F57C4236
:1021E000934211D002F5806293420DD002F58062D5
:1021F000934209D002F59A32934205D01A6842F010
:1022000001021A60002070479A6802F00702062A4D
:1022100007D01A6842F001021A60002070470120BE
:1022200070470020704700BF0000014070477047B2
:102230007047704710B5044603681A6912F0020F20
:1022400011D0DA6812F0020F0DD06FF002021A619D
:102250000123037703689B6913F0030F70D0FFF726
:10226000E6FF0023237723681A6912F0040F12D0C7
:10227000DA6812F0040F0ED06FF004021A61022324
:10228000237723689B6913F4407F5FD02046FFF7D4
:10229000CEFF0023237723681A6912F0080F12D0AB
:1022A000DA6812F0080F0ED06FF008021A610423EA
:1022B00023772368DB6913F0030F4ED02046FFF726
:1022C000B6FF0023237723681A6912F0100F12D08B
:1022D000DA6812F0100F0ED06FF010021A610823A6
:1022E00023772368DB6913F4407F3DD02046FFF756
:1022F0009EFF0023237723681A6912F0010F03D091
:10230000DA6812F0010F36D123681A6912F0800FD3
:1023100003D0DA6812F0800F34D123681A6912F002
:10232000400F03D0DA6812F0400F32D123681A69E7
:1023300012F0200F03D0DA6812F0200F30D110BD58
:10234000FFF774FF2046FFF773FF8AE72046FFF789
:102350006DFF2046FFF76CFF9BE72046FFF766FF07
:102360002046FFF765FFACE72046FFF75FFF2046FA
:10237000FFF75EFFBDE76FF001021A612046FEF72E
:1023800037FFC1E76FF080021A61204600F055F96F
:10239000C3E76FF040021A612046FFF74AFFC5E726
:1023A0006FF020021A61204600F046F9C7E70000EE
:1023B0000368254A90420ED0B0F1804F0BD0A2F5B1
:1023C0007C42904207D002F58062904203D002F531
:1023D0008062904203D123F070034A6813431A4A83
:1023E00090421AD0B0F1804F17D0A2F57C429042B3
:1023F00013D002F5806290420FD002F580629042C5
:102400000BD002F59A32904207D002F580629042DA
:1024100003D002F58062904203D123F44073CA686E
:10242000134323F080034A69134303608B68C3623C
:102430000B688362044B984202D0012343617047CA
:102440000B690363F9E700BF0000014040B310B51A
:10245000044690F83D30F3B1022384F83D30214624
:1024600051F8040BFFF7A4FF012384F8463084F8E9
:102470003E3084F83F3084F8403084F8413084F8AE
:10248000423084F8433084F8443084F8453084F88E
:102490003D30002010BD80F83C30FEF7DDFFDBE76B
:1024A0000120704710B4846824F47F4C42EA032270
:1024B0000A4342EA0C0282605DF8044B704790F8D0
:1024C0003C30012B78D010B50446012380F83C3015
:1024D000022380F83D300268936823F47F4323F0A1
:1024E000770393600B68602B4CD029D8402B54D0D5
:1024F0000CD9502B22D1CA6849680068FFF7E0FD6B
:1025000050212068FFF703FE002005E0202B0DD0AE
:1025100009D9302B0AD00120012384F83D30002353
:1025200084F83C3010BD0BB1102B05D11946206842
:10253000FFF7EDFD0020EFE70120EDE70120EBE7DD
:10254000B3F5805F34D0B3F5005F0CD1CB684A6837
:1025500089680068FFF7A6FF2268936843F4804308
:1025600093600020D8E7702B24D1CB684A68896833
:102570000068FFF797FF2268936843F07703936042
:102580000020C9E7CA6849680068FFF7ACFD602110
:102590002068FFF7BCFD0020BEE7CA6849680068F4
:1025A000FFF78EFD40212068FFF7B1FD0020B3E763
:1025B0000020B1E70120AFE70220704790F83C30DF
:1025C000012B35D010B4012380F83C30022380F871
:1025D0003D3003685A689C6822F0700C0A6842EA31
:1025E0000C025A600368134A934212D0B3F1804F31
:1025F0000FD0A2F57C4293420BD002F58062934249
:1026000007D002F58062934203D002F59A329342DA
:1026100004D124F080044A6814439C60012380F8AC
:102620003D30002380F83C3018465DF8044B70477D
:10263000022070470000014070477047026802F1B5
:102640000C0353E8003F23F490730C3242E800314E
:102650000029F3D1026802F1140353E8003F23F08C
:102660000103143242E800310029F3D1036B012B3E
:1026700005D0202380F83E300023036370470268B2
:1026800002F10C0353E8003F23F010030C3242E840
:1026900000310029F3D1ECE790F83D30DBB2212B7B
:1026A00001D0022070478368B3F5805F17D0036ABA
:1026B0005A1C02621A7803685A60C38C9BB2013BB1
:1026C0009BB2C3844BB90268D36823F08003D36004
:1026D0000268D36843F04003D36000207047036969
:1026E000002BE4D1036A1B880268C3F3080353601C
:1026F000036A02330362E0E738B5044602681369EF
:1027000023F44053C1680B43136183680269134388
:1027100042691343C2691A430168CB6823F4164324
:1027200023F00C031343CB600268536923F4407316
:1027300081690B4353610368314A934206D002F525
:102740008062934202D0FFF77DFC01E0FFF78AFC34
:10275000E369B3F5004F29D00021031849411B1844
:1027600041F10001C90041EA5371DB0018186368A8
:102770004FEA83024FEA937341F10001FDF740FDF8
:10278000204DA5FB00325109642303FB11031B01FB
:102790003233A5FB03235B0903F0F00202EB0112C5
:1027A00003F00F03216813448B6038BD0023021827
:1027B00043EB0301121841F10001C90041EA5271D3
:1027C000D200101841F10001626892185B41FDF7D8
:1027D00017FD0C4DA5FB00325109642303FB1103C7
:1027E000DB003233A5FB03235B095A0002F4F872C5
:1027F00002EB011203F00703216813448B60D4E756
:10280000001001401F85EB512DE9F84305460F46A6
:1028100016469946DDF820802C68246837EA0403C0
:102820000CBF4FF0010C4FF0000CB4452DD1B8F1A6
:10283000FF3FF1D0B8F1000F05D0FEF729FFA0EB64
:1028400009004045E8D92A6802F10C0353E8003F2B
:1028500023F4D0730C3242E800310029F3D12A6806
:1028600002F1140353E8003F23F00103143242E85D
:1028700000310029F3D1202385F83D3085F83E3022
:10288000002385F83C30032000E00020BDE8F883F9
:1028900058B310B5044690F83D300BB3242384F8A8
:1028A0003D302268D36823F40053D3602046FFF7FD
:1028B00023FF2268136923F490431361226853694C
:1028C00023F02A0353612268D36843F40053D36092
:1028D00000202064202384F83D3084F83E3010BD71
:1028E00080F83C30FEF71CFED8E7012070472DE948
:1028F000F04182B01E4690F83D30DBB2202B54D11F
:1029000004460D469046002953D0002A53D090F833
:102910003C30012B51D0012380F83C30002303646C
:10292000212380F83D30FEF7B3FE0746A4F824804B
:10293000A4F82680A368B3F5805F05D04FF00008A7
:10294000002384F83C3012E0236913B14FF00008F3
:10295000F6E7A8460025F3E738F8023B2268C3F300
:1029600008035360E28C92B2013A92B2E284E38CA3
:102970009BB273B100963B46002280212046FFF7B0
:1029800043FFE0B9002DE7D015F8012B23685A600A
:10299000E8E700963B46002240212046FFF734FF3F
:1029A00078B9202384F83D3000E0022002B0BDE871
:1029B000F0810120FAE70120F8E70220F6E7032082
:1029C000F4E70320F2E7704708B50168CA6822F00F
:1029D0004002CA60202280F83D20FFF7F4FF00206B
:1029E00008BD7047704708B5806B0023C385C3845A
:1029F000FFF7F8FF08BD704790F83E30DBB2222B9E
:102A000067D18368B3F5805F4DD0826AB3F5805F8C
:102A100004D0002B54D10369002B51D103685B68AB
:102A20001370836A01338362C38D9BB2013B9BB2F7
:102A3000C385002B4FD100B583B00268D36823F063
:102A40002003D3600268D36823F48073D3600268E4
:102A5000536923F001035361202380F83E30036B58
:102A6000012B33D100230363026802F10C0353E806
:102A7000003F23F010030C3242E800310029F3D16B
:102A800003681A6812F0100F06D0002201921A682B
:102A900001925B680193019B818DFFF7ACFF0020E1
:102AA00003B05DF804FB0269002AAED1826A0368B4
:102AB0005B68C3F308031380836A02338362B3E75E
:102AC00003685B6803F07F031370AAE7FFF789FFD1
:102AD000E5E70220704700207047000030B583B062
:102AE000044602681368D068516913F00F0505D1D8
:102AF00013F0200F02D010F0200F19D12DB111F0DA
:102B0000010119D110F4907F16D1216B01297DD0DC
:102B100013F0800F03D010F0800F40F0158113F0F8
:102B2000400F03D010F0400F40F0128103B030BDD1
:102B30002046FFF761FFF9E713F0010F06D010F40C
:102B4000807F03D0226C42F00102226413F0040F54
:102B500004D019B1226C42F00202226413F0020F79
:102B600004D019B1226C42F00402226413F0080F61
:102B700007D010F0200F00D119B1226C42F00802EA
:102B80002264226C002AD1D013F0200F02D010F062
:102B9000200F29D123685B6903F04003226C12F0F7
:102BA000080F00D163B32046FFF748FD23685B6937
:102BB00013F0400F20D0226802F1140353E8003FC5
:102BC00023F04003143242E800310029F3D1A36B13
:102BD00073B1614A1A65A06BFEF716FE0028A5D0F6
:102BE000A06B036D9847A1E72046FFF705FFD1E7EB
:102BF0002046FFF7F7FE99E72046FFF7F3FE95E73B
:102C00002046FFF7EFFE002323648FE713F0100F39
:102C10003FF47EAF10F0100F3FF47AAF0023019322
:102C20001368019353680193019B536913F0400F9C
:102C300050D0A26B13685B689BB2002B3FF476AF59
:102C4000A18D99427FF672AFE385D369B3F5807F9A
:102C500037D0226802F10C0353E8003F23F480735D
:102C60000C3242E800310029F3D1226802F114034A
:102C700053E8003F23F00103143242E800310029F9
:102C8000F3D1226802F1140353E8003F23F040031C
:102C9000143242E800310029F3D1202384F83E3079
:102CA00000232363226802F10C0353E8003F23F062
:102CB00010030C3242E800310029F3D1A06BFEF77B
:102CC00059FDA18DE38D9BB2C91A89B22046FFF749
:102CD00092FE2BE7A18DE38D9BB2C91A89B2E38DD9
:102CE0009BB2002B3FF422AF00293FF41FAF2268B4
:102CF00002F10C0353E8003F23F490730C3242E8D6
:102D000000300028F3D1226802F1140353E8003F99
:102D100023F00103143242E800300028F3D12023CD
:102D200084F83E3000232363226802F10C0353E849
:102D3000003F23F010030C3242E800300028F3D1AA
:102D40002046FFF758FEF1E62046FFF7A5FCEDE62A
:102D50002046FFF739FEE9E6E7290008842801D07C
:102D6000033070470020704708B500F033FD0020A5
:102D700008BD2DE9F04387B004460F464569BDB153
:102D80008669AEB1D0F80480D0F80090B0F90800A0
:102D9000FFF7E4FF0296019500903B462269494601
:102DA000404600F0A7FC0590059807B0BDE8F08309
:102DB00065682668D4F81080B4F90800FFF7CEFFE4
:102DC00005AB019300903B461FFA88F23146284636
:102DD00000F0CBFC0128E7D00020E6E708B500B9F9
:102DE000012000F041FE002008BD00F1080343600F
:102DF0004FF0FF328260C3600361002303607047BD
:102E000000230361704743684B609A688A60516091
:102E100099600861036801330360704730B40D683E
:102E2000B5F1FF3F11D000F108031C465B681A683A
:102E3000AA42FAD963684B6099608C60616008614E
:102E400003680133036030BC70470469F2E703692B
:102E5000416882688A60416851605A68824206D03F
:102E6000002202611A68013A1A6018687047826885
:102E70005A60F5E782B0002301930D4B1B68B3F154
:102E8000FF3F08D04FF0500383F31188BFF36F8FDB
:102E9000BFF34F8FFEE74FF0500383F31188BFF36A
:102EA0006F8FBFF34F8F019B002BFCD002B0704798
:102EB0001000002008480068006880F308884FF080
:102EC000000080F3148862B661B6BFF34F8FBFF382
:102ED0006F8F00DF00BF000008ED00E0DFF80C009E
:102EE000016841F4700101607047000088ED00E066
:102EF0004FF0807340F8043C21F0010140F8081CB9
:102F0000054B40F80C3C40F8202C6FF0020340F8D1
:102F1000243C4438704700BF752E000800000000B4
:102F2000074B19680868B0E8F04F80F30988BFF3D1
:102F30006F8F4FF0000080F311887047AFF300806F
:102F40000C4400204FF0500383F31188BFF36F8FC0
:102F5000BFF34F8F0B4A136801331360012B00D06E
:102F600070474FF0E023D3F8043D13F0FF0FF7D084
:102F70004FF0500383F31188BFF36F8FBFF34F8F70
:102F8000FEE700BF10000020094B1B6843B94FF05B
:102F9000500383F31188BFF36F8FBFF34F8FFEE7AA
:102FA000013B034A13600BB983F31188704700BFDC
:102FB00010000020000000000000000000000000E1
:102FC000EFF30980BFF36F8F154B1A681EF0100FD7
:102FD00008BF20ED108A20E9F04F10602DE90900AC
:102FE0004FF0500080F31188BFF34F8FBFF36F8F06
:102FF00000F060FD4FF0000080F3118809BC1968F3
:103000000868B0E8F04F1EF0100F08BFB0EC108A4F
:1030100080F30988BFF36F8F704700BFAFF3008064
:103020000C44002008B54FF0500383F31188BFF320
:103030006F8FBFF34F8F00F00FFC28B14FF0E023EC
:103040004FF08052C3F8042D002383F3118808BD8C
:103050004FF0E022002313619361054B1B68054983
:10306000A1FB03139B09013B5361072313617047C5
:1030700004000020D34D62104FF0E023D3F8002D60
:103080003D4B9A421CD04FF0E023D3F8002D3B4B30
:103090009A421ED030B583B0394B1A78D2B2019221
:1030A000FF221A701B78DBB28DF803309DF80330D5
:1030B00003F05003334A1370334B07221A601BE0AE
:1030C0004FF0500383F31188BFF36F8FBFF34F8F1F
:1030D000FEE74FF0500383F31188BFF36F8FBFF308
:1030E0004F8FFEE7284A1368013B13609DF80330B9
:1030F0005B00DBB28DF803309DF8033013F0800FD6
:10310000F0D1214B1B68032B08D04FF0500383F301
:103110001188BFF36F8FBFF34F8FFEE71B021A4A70
:10312000136003F4E0631360019BDBB2144A137075
:103130004FF0E024D4F8203D43F47003C4F8203D60
:10314000D4F8203D43F07043C4F8203DFFF780FFE2
:1031500000250E4B1D60FFF7C1FED4F8343F43F04D
:103160004043C4F8343FFFF7A5FE00F0A3FCFFF78F
:1031700081FE284603B030BD71C20F4170C20F41BD
:1031800000E400E0E4070020E80700201000002031
:10319000124A12F0070F1ED0D11D21F00701C1F510
:1031A000705313440A460E480260002141601344E4
:1031B000083B23F007030B48036059601960991A14
:1031C00051601360084B1960084B1960084B4FF0B1
:1031D00000421A6070474FF47053E4E7F007002094
:1031E00004440020EC070020F8430020F4430020B2
:1031F000F0430020164B1A461B688342FBD35168EC
:1032000002EB010C844509D0416800EB010C6345D9
:1032100009D00360904219D01060704740680144A3
:1032200051601046F0E710B40A4C2468A3420BD05A
:103230005B681944416013681B680360904200D0CA
:1032400010605DF8044B70470460F7E7704700BFFB
:1032500004440020EC07002070B5054600F0F4FAA5
:10326000364B1B68A3B1364B1B681D424ED135B19E
:10327000083515F0070F02D025F007050835002D99
:1032800046D0304B1B68AB4251D32F4A146804E040
:10329000FFF77EFFE7E722461C466368AB4202D297
:1032A0002368002BF7D1254B1B68A34241D0166839
:1032B00008362368136063685B1B102B10D96019F4
:1032C00010F0070F08D04FF0500383F31188BFF3BD
:1032D0006F8FBFF34F8FFEE743606560FFF78AFF94
:1032E000626818490B689B1A0B60184909688B4281
:1032F00001D216490B60124B1B6813436360002315
:103300002360134A13680133136002E0002600E0D3
:10331000002600F02DFB16F0070F0CD04FF05003E5
:1033200083F31188BFF36F8FBFF34F8FFEE7002643
:10333000EFE70026EDE7304670BD00BFEC07002048
:10334000F0430020F443002004440020F843002010
:10335000FC430020002834D038B50446A0F108050D
:1033600050F8043C174A1268134208D14FF050033A
:1033700083F31188BFF36F8FBFF34F8FFEE750F8D1
:10338000081C41B14FF0500383F31188BFF36F8FD6
:10339000BFF34F8FFEE723EA020340F8043C00F03E
:1033A00053FA54F8041C084A13680B441360284667
:1033B000FFF720FF054A13680133136000F0D8FAC5
:1033C00038BD7047F0430020F44300200044002043
:1033D000084B1B681B6823B9074B4FF0FF321A607C
:1033E0007047044B1B68DB68DB685A68024B1A6045
:1033F000704700BF10440020E44400202DE9F0474E
:1034000007469846089DDDF824900A9C266B02F139
:103410008042013A06EB820626F0070600293AD0E0
:103420008E464FF0000CBCF10F0F0BD81EF80C208D
:1034300004EB0C0383F834201EF80C3013B10CF1AC
:10344000010CF0E7002384F84330062D00D906254F
:10345000E56265644FF0000AC4F848A0201DFFF73C
:10346000CFFC04F11800FFF7CBFC2461C5F1070580
:10347000A5616462C4F84CA084F850A04246394665
:103480003046FFF735FD2060B9F1000F01D0C9F8D3
:103490000040BDE8F087002384F83430D5E7000011
:1034A00038B5002407E004EB840293000E4818446A
:1034B000FFF79BFC0134062CF5D90C4D2846FFF78D
:1034C00094FC0B4C2046FFF790FC0A48FFF78DFC5C
:1034D0000948FFF78AFC0948FFF787FC084B1D6085
:1034E000084B1C6038BD00BF18440020B8440020C1
:1034F000CC440020F04400201C450020084500205A
:10350000104400201444002010B50446FFF71AFDB3
:10351000214A136801331360204B1B685BB1204BB9
:103520001B686BB91D4B1B68DA6AE36A9A4207D8BD
:103530001A4B1C6004E0194B1C601368012B28D047
:10354000184A136801331360E06A01238340164A66
:1035500011680B43136000EB8000211D134B03EB3C
:103560008000FFF750FCFFF70FFD0D4B1B687BB190
:103570000A4B1B68DA6AE36A9A4209D24FF0E023E9
:103580004FF08052C3F8042DBFF34F8FBFF36F8FFE
:1035900010BDFFF785FFD3E7A44400200C440020B2
:1035A00004450020B0440020B4440020184400200A
:1035B00010B5044690F8513063B1012B11D0022BA5
:1035C0000ED04FF0500383F31188BFF36F8FBFF31A
:1035D0004F8FFEE7006BFFF7BDFE2046FFF7BAFEF8
:1035E00010BDFFF7B7FEFBE70F4B1B68D3B110B55B
:1035F000FFF7A8FC0D4BDB68DC68201DFFF727FCFC
:103600000B4A1368013B1360074A1368013B1360C0
:10361000FFF7BAFC2046FFF7CBFF034B1B68002BDC
:10362000E6D110BD704700BFA84400201C45002013
:10363000A444002008B5FFF7D7FF074B1B68012BF8
:10364000F9D94FF0E0234FF08052C3F8042DBFF3B7
:103650004F8FBFF36F8FEEE71844002070B504461C
:103660000D461D4B1E681D4B18680430FFF7EFFB1D
:1036700050B91A4B1B68DA6A012303FA02F218499F
:103680000B6823EA02030B60B4F1FF3F0DD0344412
:10369000124B1B685C60A64210D9124B18680F4B86
:1036A00019680431FFF7BAFB70BD002DEFD00B4B4A
:1036B000196804310C48FFF7A6FBF5E70B4B1868B7
:1036C000064B19680431FFF7A9FB094B1B68A3429D
:1036D000EAD9074B1C60E7E7304500200C44002086
:1036E000B444002014440020084500201044002069
:1036F000E444002030B587B00B9C7CB10C9DB5B183
:1037000054250495049D542D1AD04FF0500383F393
:103710001188BFF36F8FBFF34F8FFEE74FF0500359
:1037200083F31188BFF36F8FBFF34F8FFEE74FF026
:10373000500383F31188BFF36F8FBFF34F8FFEE702
:10374000049D0C9D2C63022485F8514000240394B1
:10375000029505AC01940A9C0094FFF74FFE0C986B
:10376000FFF7D2FE059807B030BD2DE9F04385B0D4
:103770000746884614461E469000FFF76DFD00B3CD
:1037800081465420FFF768FD0546B0B1C0F830907F
:10379000E5B1002385F85130039302950D9B019309
:1037A0000C9B00933346224641463846FFF726FEDF
:1037B0002846FFF7A9FE012005E04846FFF7CAFDAD
:1037C000E6E74FF0FF3005B0BDE8F0834FF0FF3083
:1037D000F9E7000010B588B000240594069407AA04
:1037E00006A905A8FDF78EF8059B0293069B019399
:1037F00000942346079A0E490E48FFF77BFF0E4BB5
:10380000186090B14FF0500383F31188BFF36F8FAE
:10381000BFF34F8F094B4FF0FF321A60084B012264
:103820001A60084B1C60FFF727FC08B010BD00BFF2
:10383000303E000835360008E0440020E444002013
:103840000445002030450020024A1368013313600C
:10385000704700BFAC440020F8B53A4B1B68002B02
:1038600069D1394B1D6801351D60C5B9374B1B68DF
:103870001B6843B14FF0500383F31188BFF36F8F80
:10388000BFF34F8FFEE7314A1168314B1868106063
:103890001960304A136801331360FFF799FD2E4B0E
:1038A0001B68AB423DD900272C4B1B68DB6A03EB3E
:1038B00083039A002A4B9B58012B00D90127294BDF
:1038C0001B68002B3CD001273AE001271F4B1B68E7
:1038D0001B6843B31D4B1B68DB68DC6863689D4253
:1038E00026D3261D3046FFF7B2FAA36A1BB104F1B6
:1038F0001800FFF7ACFAE36A01229A401A490868F7
:1039000002430A6003EB83039A00314614481044D3
:10391000FFF779FAE26A114B1B68DB6A9A42D4D24C
:10392000D4E70027D2E70C4B4FF0FF321A60BBE719
:10393000094A1360B8E70D4A136801331360002782
:103940003846F8BDAC44002030450020104400202B
:1039500014440020E8440020E44400200C440020EB
:103960001844002034450020B4440020EC440020DA
:1039700038B5354B1B6843B94FF0500383F31188BA
:10398000BFF36F8FBFF34F8FFEE7FFF7DBFA2E4BCE
:103990001A68013A1A601B68002B4FD12B4B1B6829
:1039A0000BB900244BE00024294B1B681BB3284BA8
:1039B000DB68DC6804F11800FFF749FA251D28468A
:1039C000FFF745FAE06A01238340224A11680B435E
:1039D000136000EB800029461F4B03EB8000FFF7CC
:1039E00012FAE26A1D4B1B68DB6A9A42DCD31C4B5D
:1039F00001221A60D8E70CB1FFF7EAFC194B1C68EA
:103A000084B9174B1C68D4B14FF0E0234FF08052BB
:103A1000C3F8042DBFF34F8FBFF36F8F01240EE067
:103A2000013C07D0FFF718FF0028F9D00C4B01220A
:103A30001A60F5E70B4B00221A60E2E70024FFF75B
:103A4000A3FA204638BD00BFAC440020A4440020A7
:103A5000F0440020B4440020184400200C4400200E
:103A600034450020EC44002010B5A8B10446104BAA
:103A70001B6843B14FF0500383F31188BFF36F8F7E
:103A8000BFF34F8FFEE7FFF7DFFE00212046FFF771
:103A9000E5FDFFF76DFF48B94FF0E0234FF080528E
:103AA000C3F8042DBFF34F8FBFF36F8F10BD00BF5E
:103AB000AC440020204B1B681BB1204B01221A6034
:103AC00070471E4B00221A601D4B1B68B3FA83F32C
:103AD000DBB2C3F11F0303EB83018A0019498A5843
:103AE00042B94FF0500383F31188BFF36F8FBFF3D8
:103AF0004F8FFEE7134903EB830082000A445068AE
:103B00004068506003EB830C4FEA8C02083211448A
:103B1000884209D003EB83039A000A4B13445B6885
:103B2000DA68094B1A607047406862469100054A9E
:103B30000A445060EEE700BFAC440020344500204A
:103B4000B4440020184400200C44002070B50D4EF1
:103B50000D4D761BB61006D0002455F8043B0134F9
:103B60009847A642F9D1094E094D761B00F00EF98F
:103B7000B61006D0002455F8043B01349847A642FD
:103B8000F9D170BD443E0008443E00084C3E000898
:103B9000443E0008830730B548D0541E002A3FD069
:103BA000CAB2034601E0013C3AD303F8012B9D075A
:103BB000F9D1032C2DD9CDB245EA05250F2C45EAC4
:103BC000054536D9A4F1100222F00F0C03F1200EA6
:103BD000E6444FEA121C03F1100242E9045542E99F
:103BE000025510327245F8D10CF1010214F00C0F9D
:103BF00003EB021204F00F0C13D0ACF1040323F01A
:103C000003030433134442F8045B9342FBD10CF0EA
:103C100003042CB1CAB21C4403F8012B9C42FBD113
:103C200030BD64461346002CF4D1F9E70346144630
:103C3000BFE71A46A446E0E7024A126801235C3255
:103C400000F002B814000020F0B4074610B33E465E
:103C50008C4616F8010B01E0A04216D01CF8014B6F
:103C6000002CF9D1D8B116F8015B0C4601E0002B0D
:103C7000F9D014F8013B9D42F9D14DB1002306F86B
:103C8000013C16603846F0BC70475BB13746DEE752
:103C90002E46F6E71768002FD9D13846F3E7F0BC77
:103CA00010607047166038463B70ECE7024B13B16A
:103CB000024800F005B8704700000000CD3C000845
:103CC000002301461A46184600F01AB838B5084BCA
:103CD000084D5B1B9C1007D0043B1D44013C55F86C
:103CE00004399847002CF9D1BDE8384000F054B8A9
:103CF000503E00084C3E0008704700BF704700BFB0
:103D00002DE9F047DFF880A00646DAF80000984673
:103D10000F469146FFF7F0FF1A4B1B68D3F8484156
:103D200024B365681F2D26DC5EB96B1C0235DAF8FA
:103D30000000636044F82570FFF7E0FF0020BDE855
:103D4000F08704EB85010123C1F88890D4F888211D
:103D5000AB401A43022EC4F88821C1F80881E4D18F
:103D6000D4F88C211343C4F88C31DEE703F5A67434
:103D7000C3F84841D5E7DAF80000FFF7BFFF4FF07E
:103D8000FF30DCE7383E000840040020F8B500BFF3
:103D9000F8BC08BC9E467047F8B500BFF8BC08BC2C
:043DA0009E46704784
:103DA400F83D000825100008000000000000000095
:103DB400800000000000000000000000043E000835
:103DC400CD070008FDFF0000000000008000000097
:103DD40000000000000000000C3E00081D08000860
:103DE400FDFF000000000000800000000000000053
:103DF400000000004C45445F446973706C617900B5
:103E0400427574746F6E00004448543131000000F0
:103E14002E00000000000000000000000102030466
:103E240006070809000000000102030449444C4548
:083E340000000000180000204E
:083E3C00F4C3FF7F0100000048
:083E4400AD3C0008E501000897
:043E4C00C1010008A8
:103E5000010000000024F400010000001000000038
:103E6000AAAAAAAA1800002000000000040300204B
:103E70006C030020D40300200000000000000000BC
:103E80000000000000000000000000000000000032
:103E90000000000000000000000000000000000022
:103EA0000000000000000000000000000000000012
:103EB0000000000000000000000000000000000002
:103EC00000000000000000000000000000000000F2
:103ED00000000000000000000000000000000000E2
:103EE00000000000000000000000000000000000D2
:103EF00000000000000000000000000000000000C2
:103F000000000000000000000000000000000000B1
:103F100001000000000000000E33CDAB34126DE64E
:103F2000ECDE05000B0000000000000000000000B7
:103F30000000000000000000000000000000000081
:103F40000000000000000000000000000000000071
:103F50000000000000000000000000000000000061
:103F60000000000000000000000000000000000051
:04429000384500208D
:04000005080015F1E9
:00000001FF
