:020000040800F2
:10000000000003201D1F0008F1180008F318000865
:10001000F5180008F7180008F9180008000000009B
:10002000000000000000000000000000FB180008B5
:10003000FD18000800000000FF1800080119000862
:10004000711F0008711F0008711F0008711F000850
:10005000711F0008711F0008711F0008711F000840
:10006000711F0008711F0008711F0008711F000830
:10007000711F0008711F0008711F0008711F000820
:10008000711F0008711F0008711F0008711F000810
:10009000711F0008711F0008711F0008711F000800
:1000A000711F0008711F0008711F0008711F0008F0
:1000B00009190008711F0008711F0008711F00084E
:1000C000711F0008711F0008711F0008711F0008D0
:1000D000711F0008711F0008711F0008711F0008C0
:1000E000711F0008711F0008711F0008711F0008B0
:1000F000711F0008711F0008711F0008711F0008A0
:10010000711F0008711F0008711F0008711F00088F
:10011000711F0008711F0008711F0008711F00087F
:10012000711F0008711F0008711F0008711F00086F
:0C013000711F0008711F0008711F0008FB
:1001400010B5054C237833B9044B13B10448AFF311
:1001500000800123237010BDC009002000000000B2
:1001600068AC000808B5034B1BB103490348AFF363
:10017000008008BD00000000C409002068AC000831
:1001800081F0004102E000BF83F0004330B54FEA48
:1001900041044FEA430594EA050F08BF90EA020FB5
:1001A0001FBF54EA000C55EA020C7FEA645C7FEA48
:1001B000655C00F0E2804FEA5454D4EB5555B8BF6B
:1001C0006D420CDD2C4480EA020281EA030382EADC
:1001D000000083EA010180EA020281EA0303362D6E
:1001E00088BF30BD11F0004F4FEA01314FF4801C41
:1001F0004CEA113102D0404261EB410113F0004F53
:100200004FEA03334CEA133302D0524263EB430309
:1002100094EA050F00F0A780A4F10104D5F1200EA7
:100220000DDB02FA0EFC22FA05F2801841F1000102
:1002300003FA0EF2801843FA05F359410EE0A5F1D6
:1002400020050EF1200E012A03FA0EFC28BF4CF007
:10025000020C43FA05F3C01851EBE37101F00045BD
:1002600007D54FF0000EDCF1000C7EEB00006EEBCA
:100270000101B1F5801F1BD3B1F5001F0CD3490854
:100280005FEA30004FEA3C0C04F101044FEA4452AB
:1002900012F5800F80F09A80BCF1004F08BF5FEA32
:1002A000500C50F1000041EB045141EA050130BD12
:1002B0005FEA4C0C404141EB0101013C28BFB1F524
:1002C000801FE9D291F0000F04BF01460020B1FA6F
:1002D00081F308BF2033A3F10B03B3F120020CDA42
:1002E0000C3208DD02F1140CC2F10C0201FA0CF020
:1002F00021FA02F10CE002F11402D8BFC2F1200C85
:1003000001FA02F120FA0CFCDCBF41EA0C0190403A
:10031000E41AA2BF01EB0451294330BD6FEA040483
:100320001F3C1CDA0C340EDC04F11404C4F120026E
:1003300020FA04F001FA02F340EA030021FA04F380
:1003400045EA030130BDC4F10C04C4F1200220FAD7
:1003500002F001FA04F340EA0300294630BD21FA15
:1003600004F0294630BD94F0000F83F4801306BFDB
:1003700081F480110134013D4EE77FEA645C18BFCF
:100380007FEA655C29D094EA050F08BF90EA020F66
:1003900005D054EA000C04BF1946104630BD91EA5E
:1003A000030F1EBF0021002030BD5FEA545C05D161
:1003B0004000494128BF41F0004130BD14F58004A0
:1003C0003CBF01F5801130BD01F0004545F0FE4114
:1003D00041F470014FF0000030BD7FEA645C1ABF49
:1003E000194610467FEA655C1CBF0B46024650EA80
:1003F000013406BF52EA033591EA030F41F40021AC
:1004000030BD00BF90F0000F04BF0021704730B531
:100410004FF4806404F132044FF000054FF0000106
:1004200050E700BF90F0000F04BF0021704730B5C7
:100430004FF4806404F1320410F0004548BF40429C
:100440004FF000013EE700BF42004FEAE2014FEAF1
:1004500031014FEA02701FBF12F07F4393F07F4FCC
:1004600081F06051704732F07F4208BF704793F0CF
:100470007F4F04BF41F40021704730B54FF46074E2
:1004800001F0004521F000411CE700BF50EA0102E5
:1004900008BF704730B54FF000050AE050EA01028E
:1004A00008BF704730B511F0004502D5404261EBFE
:1004B00041014FF4806404F132045FEA915C3FF43F
:1004C000D8AE4FF003025FEADC0C18BF03325FEADC
:1004D000DC0C18BF033202EBDC02C2F1200300FA8D
:1004E00003FC20FA02F001FA03FE40EA0E0021FAB2
:1004F00002F11444BDE600BF80F0004002E000BFFE
:1005000081F0004142001FBF5FEA410392EA030FFE
:100510007FEA226C7FEA236C6AD04FEA1262D2EB48
:100520001363C1BFD218414048404140B8BF5B424D
:10053000192B88BF704710F0004F40F4000020F0E6
:100540007F4018BF404211F0004F41F4000121F0FC
:100550007F4118BF494292EA030F3FD0A2F1010246
:1005600041FA03FC10EB0C00C3F1200301FA03F184
:1005700000F0004302D5494260EB4000B0F5000FA7
:1005800013D3B0F1807F06D340084FEA310102F166
:100590000102FE2A51D2B1F1004F40EBC25008BF18
:1005A00020F0010040EA03007047490040EB0000E2
:1005B000013A28BFB0F5000FEDD2B0FA80FCACF1E3
:1005C000080CB2EB0C0200FA0CF0AABF00EBC25010
:1005D00052421843BCBFD0401843704792F0000FFE
:1005E00081F4000106BF80F400000132013BB5E751
:1005F0004FEA41037FEA226C18BF7FEA236C21D0C7
:1006000092EA030F04D092F0000F08BF084670472B
:1006100090EA010F1CBF0020704712F07F4F04D1F9
:10062000400028BF40F00040704712F100723CBF0C
:1006300000F50000704700F0004343F0FE4040F436
:10064000000070477FEA226216BF08467FEA2363F4
:100650000146420206BF5FEA412390EA010F40F4DF
:10066000800070474FF0000304E000BF10F000432B
:1006700048BF40425FEA000C08BF704743F0964312
:1006800001464FF000001CE050EA010208BF70472D
:100690004FF000030AE000BF50EA010208BF7047B4
:1006A00011F0004302D5404261EB41015FEA010CC9
:1006B00002BF84460146002043F0B64308BFA3F1C1
:1006C0008053A3F50003BCFA8CF2083AA3EBC253A3
:1006D00010DB01FA02FC634400FA02FCC2F12002C2
:1006E000BCF1004F20FA02F243EB020008BF20F0F9
:1006F0000100704702F1200201FA02FCC2F120025F
:1007000050EA4C0021FA02F243EB020008BF20EA53
:10071000DC7070474FF0FF0C1CEAD0521EBF1CEA81
:10072000D15392EA0C0F93EA0C0F6FD01A4480EA6F
:10073000010C400218BF5FEA41211ED04FF0006358
:1007400043EA501043EA5111A0FB01310CF0004084
:10075000B1F5000F3EBF490041EAD3715B0040EAAA
:10076000010062F17F02FD2A1DD8B3F1004F40EB7A
:10077000C25008BF20F00100704790F0000F0CF04D
:10078000004C08BF49024CEA502040EA51207F3A11
:10079000C2BFD2F1FF0340EAC250704740F40000EC
:1007A0004FF00003013A5DDC12F1190FDCBF00F0DD
:1007B00000407047C2F10002410021FA02F1C2F18B
:1007C000200200FA02FC5FEA310040F1000053EA27
:1007D0004C0308BF20EADC70704792F0000F00F075
:1007E000004C02BF400010F4000F013AF9D040EA7B
:1007F0000C0093F0000F01F0004C02BF490011F40F
:10080000000F013BF9D041EA0C018FE70CEAD1530C
:1008100092EA0C0F18BF93EA0C0F0AD030F0004C8C
:1008200018BF31F0004CD8D180EA010000F0004040
:10083000704790F0000F17BF90F0004F084691F0FE
:10084000000F91F0004F14D092EA0C0F01D1420238
:100850000FD193EA0C0F03D14B0218BF084608D101
:1008600080EA010000F0004040F0FE4040F400004B
:10087000704740F0FE4040F4400070474FF0FF0CDE
:100880001CEAD0521EBF1CEAD15392EA0C0F93EA25
:100890000C0F69D0A2EB030280EA010C49024FEA77
:1008A000402037D04FF0805343EA111143EA101330
:1008B0000CF000408B4238BF5B0042F17D024FF4E8
:1008C000000C8B4224BF5B1A40EA0C00B3EB510FC3
:1008D00024BFA3EB510340EA5C00B3EB910F24BFAC
:1008E000A3EB910340EA9C00B3EBD10F24BFA3EB31
:1008F000D10340EADC001B0118BF5FEA1C1CE0D1F9
:10090000FD2A3FF650AF8B4240EBC25008BF20F0AB
:10091000010070470CF0004C4CEA50207F32C2BFFF
:10092000D2F1FF0340EAC250704740F400004FF09C
:100930000003013A37E792F0000F00F0004C02BFCD
:10094000400010F4000F013AF9D040EA0C0093F097
:10095000000F01F0004C02BF490011F4000F013BF1
:10096000F9D041EA0C0195E70CEAD15392EA0C0F59
:1009700008D142027FF47DAF93EA0C0F7FF470AF91
:10098000084676E793EA0C0F04D14B023FF44CAFD4
:1009900008466EE730F0004C18BF31F0004CCAD169
:1009A00030F000427FF45CAF31F000437FF43CAFA5
:1009B0005FE700BF53B94AB9002908BF00281CBF30
:1009C0004FF0FF314FF0FF3000F074B9ADF1080C7B
:1009D0006DE904CE00F006F8DDF804E0DDE902235D
:1009E00004B070472DE9F047089E0D46044688463E
:1009F000002B4DD18A42944668D9B2FA82F252B1A4
:100A000001FA02F3C2F1200120FA01F10CFA02FC12
:100A100041EA030894404FEA1C45210CB8FBF5FE5F
:100A20001FFA8CF705FB1E8341EA03430EFB07F117
:100A300099420BD91CEB03030EF1FF3080F01E81AD
:100A4000994240F21B81AEF1020E63445B1AA4B2DC
:100A5000B3FBF5F005FB103344EA034400FB07F752
:100A6000A7420AD91CEB040400F1FF3380F008818F
:100A7000A74240F2058164440238E41B40EA0E407C
:100A800000211EB1D4400023C6E90043BDE8F08731
:100A90008B4208D9002E00F0EE800021C6E9000547
:100AA0000846BDE8F087B3FA83F100294AD1AB428A
:100AB00002D3824200F2F980841A65EB030301201D
:100AC0009846002EE2D0C6E90048DFE702B9FFDE13
:100AD000B2FA82F2002A40F09180A1EB0C054FEAB5
:100AE0001C471FFA8CFE0121B5FBF7F307FB1350DF
:100AF000250C45EA00450EFB03F0A84208D91CEB83
:100B0000050503F1FF3802D2A84200F2CB8043462C
:100B10002D1AA4B2B5FBF7F007FB105544EA0544C3
:100B20000EFB00FEA64508D91CEB040400F1FF35BE
:100B300002D2A64500F2BB802846A4EB0E0440EA90
:100B400003409EE7C1F120078B4022FA07FC4CEAE4
:100B5000030C20FA07F405FA01F31C43FD404FEAA9
:100B60001C4900FA01F3B5FBF9F8200C1FFA8CFEC2
:100B700009FB185540EA054508FB0EF0A84202FAA9
:100B800001F20BD91CEB050508F1FF3A80F08880D3
:100B9000A84240F28580A8F1020865442D1AA4B24B
:100BA000B5FBF9F009FB105544EA054500FB0EFEC4
:100BB000AE4508D91CEB050500F1FF346CD2AE45FB
:100BC0006AD90238654440EA0840A0FB0294A5EBCC
:100BD0000E05A542C846A64656D353D05EB1B3EB28
:100BE000080265EB0E0505FA07F722FA01F3CD407E
:100BF0001F43C6E900750021BDE8F087C2F120035C
:100C000020FA03F10CFA02FC25FA03F395400D4398
:100C10004FEA1C471FFA8CFEB3FBF7F107FB1130BC
:100C20002B0C43EA004301FB0EF0984204FA02F455
:100C300008D91CEB030301F1FF382FD298422DD9BC
:100C4000023963441B1AADB2B3FBF7F007FB103354
:100C500045EA034500FB0EF3AB4208D91CEB050542
:100C600000F1FF3816D2AB4214D902386544ED1AB0
:100C700040EA014138E73146304607E78646E5E677
:100C80001846FAE64B45A9D2B9EB020864EB0C0E04
:100C90000138A3E74046EAE7204694E74146D1E71A
:100CA000D0467BE7023B654432E7084609E76444E7
:100CB000023842E7704700BF00000000000000005B
:100CC00001F0FF01102A2BDB10F0070F08D010F8FD
:100CD000013B013A8B422DD010F0070F42B3F6D101
:100CE000F0B441EA012141EA014122F007047FF01A
:100CF00000070023F0E80256083C85EA010586EA71
:100D0000010685FA47F5A3FA87F586FA47F6A5FAAC
:100D100087F68EB9EED1F0BC01F0FF0102F00702B8
:100D200032B110F8013B013A83EA010313B1F8D163
:100D30000020704701387047002D06BF3546033844
:100D4000073815F0010F07D1013015F4807F02BF7D
:100D5000013015F4C03F0130F0BC0138704700BFCE
:100D6000844641EA000313F003036DD1403A41D3B6
:100D700051F8043B40F8043B51F8043B40F8043B75
:100D800051F8043B40F8043B51F8043B40F8043B65
:100D900051F8043B40F8043B51F8043B40F8043B55
:100DA00051F8043B40F8043B51F8043B40F8043B45
:100DB00051F8043B40F8043B51F8043B40F8043B35
:100DC00051F8043B40F8043B51F8043B40F8043B25
:100DD00051F8043B40F8043B51F8043B40F8043B15
:100DE00051F8043B40F8043B51F8043B40F8043B05
:100DF000403ABDD2303211D351F8043B40F8043BA5
:100E000051F8043B40F8043B51F8043B40F8043BE4
:100E100051F8043B40F8043B103AEDD20C3205D3B4
:100E200051F8043B40F8043B043AF9D2043208D0AC
:100E3000D2071CBF11F8013B00F8013B01D30B881E
:100E400003806046704700BF082A13D38B078DD0FC
:100E500010F003038AD0C3F10403D21ADB071CBFCE
:100E600011F8013B00F8013B80D331F8023B20F838
:100E7000023B7BE7043AD9D3013A11F8013B00F871
:100E8000013BF9D20B7803704B7843708B788370F9
:100E900060467047000000000000000000000000F5
:100EA0000000000000000000000000000000000042
:100EB0000000000000000000000000000000000032
:100EC00090F800F06DE9024520F007016FF0000C8A
:100ED00010F0070491F820F040F049804FF0000432
:100EE0006FF00700D1E9002391F840F000F108000D
:100EF00082FA4CF2A4FA8CF283FA4CF3A2FA8CF345
:100F00004BBBD1E9022382FA4CF200F10800A4FAAB
:100F10008CF283FA4CF3A2FA8CF3E3B9D1E90423FF
:100F200082FA4CF200F10800A4FA8CF283FA4CF336
:100F3000A2FA8CF37BB9D1E9062301F1200182FAF0
:100F40004CF200F10800A4FA8CF283FA4CF3A2FAF6
:100F50008CF3002BC6D0002A04BF04301A4612BA04
:100F6000B2FA82F2FDE8024500EBD2007047D1E907
:100F7000002304F00305C4F100004FEAC50514F096
:100F8000040F91F840F00CFA05F562EA05021CBF67
:100F900063EA050362464FF00004A9E770B54FF01D
:100FA000FF0C4CF4E06C1CEA11541DBF1CEA1355F5
:100FB00094EA0C0F95EA0C0F00F0DEF82C4481EA5D
:100FC000030621EA4C5123EA4C5350EA013518BF7D
:100FD00052EA033541F4801143F4801338D0A0FB6A
:100FE00002CE4FF00005E1FB02E506F00042E0FB17
:100FF00003E54FF00006E1FB03569CF0000F18BF1D
:101000004EF0010EA4F1FF04B6F5007F64F54074C4
:1010100004D25FEA4E0E6D4146EB060642EAC62157
:1010200041EA55514FEAC52040EA5E504FEACE2EC4
:10103000B4F1FD0C88BFBCF5E06F1ED8BEF1004FC7
:1010400008BF5FEA500E50F1000041EB045170BD43
:1010500006F0004646EA010140EA020081EA030187
:10106000B4EB5C04C2BFD4EB0C0541EA045170BD83
:1010700041F480114FF0000E013C00F3AB8014F1FD
:10108000360FDEBF002001F0004170BDC4F1000446
:10109000203C35DA0C341BDC04F11404C4F12005C7
:1010A00000FA05F320FA04F001FA05F240EA020022
:1010B00001F0004221F0004110EBD37021FA04F658
:1010C00042EB06015EEA430E08BF20EAD37070BD12
:1010D000C4F10C04C4F1200500FA04F320FA05F071
:1010E00001FA04F240EA020001F0004110EBD37073
:1010F00041F100015EEA430E08BF20EAD37070BDE3
:10110000C4F1200500FA05F24EEA020E20FA04F3BB
:1011100001FA05F243EA020321FA04F001F000416A
:1011200021FA04F220EA020000EBD3705EEA430EDB
:1011300008BF20EAD37070BD94F0000F0FD101F00A
:101140000046400041EB010111F4801F08BF013C43
:10115000F7D041EA060195F0000F18BF704703F081
:101160000046520043EB030313F4801F08BF013D08
:10117000F7D043EA0603704794EA0C0F0CEA1355C4
:1011800018BF95EA0C0F0CD050EA410618BF52EA7E
:101190004306D1D181EA030101F000414FF0000084
:1011A00070BD50EA410606BF1046194652EA430692
:1011B00019D094EA0C0F02D150EA013613D195EA06
:1011C0000C0F05D152EA03361CBF104619460AD14E
:1011D00081EA030101F0004141F0FE4141F4700158
:1011E0004FF0000070BD41F0FE4141F4780170BD48
:1011F00070B54FF0FF0C4CF4E06C1CEA11541DBFAD
:101200001CEA135594EA0C0F95EA0C0F00F0A7F8AE
:10121000A4EB050481EA030E52EA03354FEA0131DB
:1012200000F088804FEA03334FF0805545EA1313EE
:1012300043EA12634FEA022245EA111545EA1065B6
:101240004FEA00260EF000419D4208BF964244F14D
:10125000FD0404F5407402D25B084FEA3202B61A6C
:1012600065EB03055B084FEA32024FF480104FF440
:10127000002CB6EB020E75EB030E22BFB61A7546B4
:1012800040EA0C005B084FEA3202B6EB020E75EB47
:10129000030E22BFB61A754640EA5C005B084FEAAF
:1012A0003202B6EB020E75EB030E22BFB61A75467C
:1012B00040EA9C005B084FEA3202B6EB020E75EB87
:1012C000030E22BFB61A754640EADC0055EA060E48
:1012D00018D04FEA051545EA16754FEA06164FEA8B
:1012E000C30343EA52734FEAC2025FEA1C1CC0D137
:1012F00011F4801F0BD141EA00014FF000004FF0C4
:10130000004CB6E711F4801F04BF01430020B4F184
:10131000FD0C88BFBCF5E06F3FF6AFAEB5EB030C3C
:1013200004BFB6EB020C5FEA500C50F1000041EB39
:10133000045170BD0EF0004E4EEA113114EB5C0406
:10134000C2BFD4EB0C0541EA045170BD41F48011D9
:101350004FF0000E013C90E645EA060E8DE60CEAE1
:10136000135594EA0C0F08BF95EA0C0F3FF43BAFFE
:1013700094EA0C0F0AD150EA01347FF434AF95EAB5
:101380000C0F7FF425AF104619462CE795EA0C0F99
:1013900006D152EA03353FF4FDAE1046194622E766
:1013A00050EA410618BF52EA43067FF4C5AE50EA40
:1013B00041047FF40DAF52EA43057FF4EBAE12E730
:1013C0004FF0FF3C06E000BF4FF0010C02E000BF11
:1013D0004FF0010C4DF804CD4FEA410C7FEA6C5CF4
:1013E0004FEA430C18BF7FEA6C5C1BD001B050EA97
:1013F000410C0CBF52EA430C91EA030F02BF90EA82
:10140000020F0020704710F1000F91EA030F58BF40
:10141000994208BF90422CBFD8176FEAE37040F0A2
:10142000010070474FEA410C7FEA6C5C02D150EA40
:10143000013C07D14FEA430C7FEA6C5CD6D152EAFB
:10144000033CD3D05DF8040B704700BF84461046C0
:1014500062468C461946634600E000BF01B5FFF7BF
:10146000B7FF002848BF10F1000F01BD4DF808ED8F
:10147000FFF7F4FF0CBF012000205DF808FB00BF60
:101480004DF808EDFFF7EAFF34BF012000205DF8BA
:1014900008FB00BF4DF808EDFFF7E0FF94BF012007
:1014A00000205DF808FB00BF4DF808EDFFF7CEFF08
:1014B00094BF012000205DF808FB00BF4DF808ED47
:1014C000FFF7C4FF34BF012000205DF808FB00BF18
:1014D0004FEA410C7FEA6C5C02D150EA013C0AD130
:1014E0004FEA430C7FEA6C5C02D152EA033C02D122
:1014F0004FF0000070474FF0010070474FEA410283
:1015000012F5001215D211D56FF47873B3EB625255
:1015100012D94FEAC12343F0004343EA505311F07C
:10152000004F23FA02F018BF404270474FF000000E
:10153000704750EA013005D111F0004008BF6FF04C
:10154000004070474FF00000704700BFF0B58BB00F
:101550000024059406940794089409944FF0B0432E
:10156000DA6C42F00402DA64DA6C02F004020492EB
:10157000049ADA6C42F00102DA64DA6C02F00102D9
:101580000392039ADA6C42F00202DA64DA6C02F037
:1015900002020292029ADA6C42F00802DA64DB6C10
:1015A00003F008030193019B144D22462321284692
:1015B00000F085FE102705970694079405A91048AA
:1015C00000F0AEFD232305930126069607940894A8
:1015D00005A9284600F0A4FD03230593069407946B
:1015E00005A9084800F09CFD05970694079605A9F3
:1015F000284600F095FD0BB0F0BD00BF0004004888
:1016000000080048000C004872B6FEE730B5AFB0E5
:10161000482200211CA803F0CDFA0024159416944A
:101620001794189419941A941B945022214601A8D7
:1016300003F0C0FA4FF0B045EB6823F07003EB60A5
:10164000EB6823F0030343F00103EB6000F0C4FEFA
:10165000D5F8903023F01803C5F890302B4A136862
:1016600023F4C06343F400731360136803F4C0638E
:101670000093009B27231C934FF480331D93012379
:101680001E934FF480721F9223934023209324943F
:101690006023259327941CA800F0A4FF00282FD1D5
:1016A0006F2315930223169300231793189319930E
:1016B0001A931B93012115A801F028FB10BB42F2DD
:1016C00003130193182302934FF4003303934FF055
:1016D000007304934FF0005305934FF0807306930B
:1016E0000023079308934FF080620E921393149394
:1016F00001A801F036FD38B901F0C6FE2FB030BDAB
:10170000FFF782FFFFF780FFFFF77EFF000400581E
:1017100070B582B000F056FCFFF778FFFFF716FFB8
:1017200000F0E0FA00F012FB00F074FA00F088F923
:1017300000F09CFB2B4800F06BF800212A4802F0D7
:101740002DFC2A4C0021204602F0BAFC0421204640
:1017500002F0B6FC00260AE0002638E0142000F073
:101760005FFC1021224800F0A3FD0128F6D1214B97
:101770001A68214B1968214803F06EFA204B18684B
:10178000FEF762FE04460D461E4B1868FEF75CFE2F
:10179000CDE9000122462B461B4803F05DFA642088
:1017A00000F03EFC1021124800F082FD0128DED03E
:1017B0000A2000F035FC10210D4800F079FD0128C9
:1017C000CFD042F210739E42C6DC06F57A763146DF
:1017D0000E4803F041FA044803685E62002102F0FB
:1017E000DDFBBEE78C0A0020F4090020400A00203F
:1017F00000040048EC090020E8090020ACAC000817
:10180000E0090020E4090020C0AC0008E8AC0008B2
:1018100008B5054B1860054B1868002302221946CD
:10182000806803F02DFA08BDDC09002014000020B8
:10183000022801D80120704708B503F091F9092367
:101840000360002008BD000010B5013801280AD847
:1018500014464FF0FF3392B20748006802F063FF6E
:1018600040B9204610BD03F07BF9092303604FF017
:10187000FF30F7E70520F5E7DC090020022801D852
:101880000020704708B503F06BF9092303604FF09F
:10189000FF3008BD08B503F063F9092303604FF07A
:1018A000FF3008BD08B548B94FF0FF3301220848A2
:1018B000006802F0A7FF40B9012008BD03F050F90D
:1018C000092303604FF0FF30F7E70520F5E700BF7D
:1018D000DC09002008B5022804D84FF400534B60FF
:1018E000002008BD03F03CF909230360F8E77047C6
:1018F000FEE7FEE7FEE7FEE7FEE77047704770474A
:1019000008B500F075FB08BD08B5024801F064FF9A
:1019100008BD00BF400A002038B501230377134DEE
:101920000021284601F03BFF114C2060042128468D
:1019300001F035FF0F4B18602468B4B10130FEF799
:1019400091FE0D49FEF7E6FE0546601CFEF78AFE95
:10195000044601462846FEF791FF084B18602146D1
:101960000748FEF78BFF074B186038BD400A002080
:10197000E8090020EC0900200000C842E00900202E
:1019800000247449E40900200120704708B503F0E1
:10199000E7F8162303604FF0FF3008BD08B54FF09D
:1019A000FF31FFF7F3FFFEE710B503460C4A0D4980
:1019B0000D48006840B10C4800680344521A934235
:1019C00006D8094A136010BD0748084C0460F2E7C6
:1019D00003F0C6F80C2303604FF0FF30F3E700BFBD
:1019E0000000032000040000F0090020F00E002099
:1019F0004FF0B0431A6842F001021A604FF4E0223F
:101A00009A601968A2F1A262A2F205120A401A6055
:101A1000D3F8942022F00502C3F89420D3F898203C
:101A200022F00102C3F89820044ADA601A611A68A9
:101A300022F480221A6000229A617047001004226A
:101A400000B591B000230C930D930E930F93079361
:101A5000089309930A930B930493059306930093B9
:101A60000193029303932F484FF0804202603F227C
:101A7000426083604FF0FF32C26003618023836164
:101A800001F0B0FF002838D14FF480530C930CA91B
:101A9000244802F091F9002832D1224802F002F8DD
:101AA000002830D10423079350230893002309937F
:101AB0000B9307A91B4802F038FA38BB00230493A4
:101AC000069304A9174802F0BBFB10BB002200924A
:101AD00001230193029203926946124802F006F92B
:101AE000D0B9022300930193042269460D4802F005
:101AF000FDF8A0B911B05DF804FBFFF785FDC3E761
:101B0000FFF782FDC9E7FFF77FFDCBE7FFF77CFD1D
:101B1000D4E7FFF779FDD9E7FFF776FDE1E7FFF7B7
:101B200073FDE7E7400A00200268094B9A4200D0A3
:101B3000704782B04FF0B0431A6E42F400621A66EA
:101B40001B6E03F400630193019B02B0704700BF5A
:101B5000002C014000B589B0002303930493059342
:101B6000069307930368B3F1804F02D009B05DF884
:101B700004FB4FF0B0439A6D42F001029A659A6DF2
:101B800002F001020292029ADA6C42F00102DA6477
:101B9000DB6C03F001030193019B012303930222F9
:101BA0000492079303A94FF0904000F0B9FA002285
:101BB00011461C2000F05AFA1C2000F08FFAD5E7DD
:101BC00000B587B000230193029303930493059318
:101BD00002680F4B9A4202D007B05DF804FB4FF049
:101BE000B043DA6C42F00102DA64DB6C03F001030B
:101BF0000093009B4FF4807301930223029301230F
:101C0000059301A94FF0904000F08AFAE4E700BF85
:101C1000002C014010B598B0002415941694179428
:101C20000E940F94109411941294139414943422DB
:101C3000214601A802F0BEFF2848294B03601F235C
:101C40004360846042F20F73C36004614461846145
:101C500001F0F8FE002835D1002315931693179351
:101C600015A91E4802F0ECFA00282ED160230E932D
:101C700041F288330F930022109211921292139224
:101C800014920EA9154801F079FF08BB00230193B7
:101C900002930393049305934FF400520692079323
:101CA000089309934FF000720A920B930C930D93D3
:101CB00001A90A4802F0F8FA68B90848FFF780FF5E
:101CC00018B010BDFFF7A0FCC6E7FFF79DFCCDE7FD
:101CD000FFF79AFCDAE7FFF797FCEEE7F40900203C
:101CE000002C014008B51748174B03604FF46133CF
:101CF000436000238360C36003610C2242618361FF
:101D0000036243628362436602F04CFE70B90021B5
:101D10000C4802F0C0FE60B900210A4802F0E0FE63
:101D200050B9084802F098FE48B908BDFFF76CFCAE
:101D3000EDE7FFF769FCEFE7FFF766FCF1E7FFF778
:101D400063FCF2E78C0A00200080004008B51848C8
:101D5000184B03604FF4E13343604FF080538360CE
:101D60000023C36003610C2242618361C36103628B
:101D70004362836202F016FE70B900210C4802F043
:101D80008AFE60B900210A4802F0AAFE50B908484C
:101D900002F062FE48B908BDFFF736FCEDE7FFF739
:101DA00033FCEFE7FFF730FCF1E7FFF72DFCF2E73C
:101DB0001C0B00200038014000B58BB000230593B8
:101DC00006930793089309930368244A934205D026
:101DD000234A934221D00BB05DF804FB4FF0B0438F
:101DE000DA6D42F00102DA65DA6D02F00102029268
:101DF000029ADA6C42F00402DA64DB6C03F004034A
:101E00000193019B0323059302230693082309935F
:101E100005A9144800F084F9DDE74FF0B0431A6ECD
:101E200042F480421A661A6E02F480420492049AC6
:101E3000DA6C42F00202DA64DB6C03F00203039313
:101E4000039BC023059302230693012307930723D3
:101E5000099305A9044800F063F9BCE7008000403D
:101E600000380140000800480004004808B50A484E
:101E70000A4B03600823436002238360036100234D
:101E800043618361C361036200F01EFA00B908BDBB
:101E9000FFF7BAFBFBE700BFAC0B00200068004077
:101EA00010B588B00023039304930593069307931A
:101EB0000268134B9A4201D008B010BD4FF0B044F5
:101EC000E36C43F00103E364E36C03F0010302936A
:101ED000029B4FF4C0530393022304930A230793F6
:101EE00003A94FF0904000F01BF9A36D43F080630D
:101EF000A365A36D03F080630193019BDCE700BF42
:101F000000680040D458C4500433C4188C42F9D33C
:101F10007047036004308842FBD370470C48854605
:101F2000FFF766FD0B480C490C4A0023FFF7EDFF55
:101F30000B480C490023FFF7EEFF0B480B49002329
:101F4000FFF7E9FF02F012FEFFF7E2FBFEE70000F9
:101F50000000032008000020C0090020D4B10008C0
:101F6000C0090020EC0E0020000003200000032028
:101F7000FEE70000114B1B780BB90120704710B52C
:101F8000044600F01FFB0D4B1A784FF47A73B3FB35
:101F9000F2F3B0FBF3F000F0AFF868B90F2C01D901
:101FA00001200AE0002221464FF0FF3000F05EF8E9
:101FB000034B1C60002000E0012010BD0C0000203D
:101FC0001000002010B5094A136843F480731360B1
:101FD000032000F039F80020FFF7CCFF10B10124F6
:101FE000204610BD0446FFF782FCF9E70040005888
:101FF000034B1B78034A11680B441360704700BF02
:102000000C000020A00E0020014B1868704700BF94
:10201000A00E0020014B1868704700BF1000002080
:1020200038B50446FFF7F0FF0546B4F1FF3F02D094
:10203000044B1B781C44FFF7E7FF401BA042FAD378
:1020400038BD00BF0C000020074AD36823F4E063CA
:102050001B041B0C000200F4E060034343F0BF6369
:1020600043F40033D360704700ED00E000B5194B36
:10207000DB68C3F30223C3F1070CBCF1040F28BFD4
:102080004FF0040C03F1040EBEF1060F18D9033B08
:102090004FF0FF3E0EFA0CFC21EA0C0199400EFABB
:1020A00003F322EA0303194300280BDB0901C9B239
:1020B00000F1604000F5614080F800135DF804FB1A
:1020C0000023E5E700F00F000901C9B2024B1954E3
:1020D000F4E700BF00ED00E014ED00E0002807DBAE
:1020E00000F01F02400901239340024A42F82030C9
:1020F000704700BF00E100E00138B0F1807F0BD2F3
:102100004FF0E0235861054AF02182F823100020A7
:10211000986107221A6170470120704700ED00E0C6
:10212000F0B500233AE0042400E00024B4403C432E
:1021300002355C4E46F825405B4CD4F88050D443C1
:1021400025EA02064F6817F4803F01D042EA0506EF
:10215000554DC5F88060D5F8845004EA05064F68EF
:1021600017F4003F01D042EA05064F4DC5F88460E0
:102170002D6804EA05064F6817F4801F01D042EA73
:102180000506494D2E606D682C404E6816F4001F00
:1021900001D042EA0504444A546001330A6832FA25
:1021A00003F47ED04FF0010C0CFA03FC1CEA02028F
:1021B000F3D04C68651E012D03D9112C01D0122CCF
:1021C00013D185685E000324B44025EA0405CC6879
:1021D000B4402C438460446824EA0C0C4C68C4F37B
:1021E00000149C4044EA0C044460C6684FEA430C67
:1021F000032505FA0CF5EC4326EA050E8D6805FA71
:102200000CF545EA0E05C5604D68022D01D0122D72
:1022100012D1DE08083650F8267003F007054FEAA1
:10222000850E0F2505FA0EF527EA05070D6905FA53
:102230000EF53D4340F82650056825404C6804F0F3
:10224000030404FA0CF42C4304604C6814F0805F1F
:10225000A3D09D08AE1C134C54F8267003F0030461
:10226000A6000F24B44027EA0407B0F1904F3FF4D2
:102270005CAF0E4CA0420ED004F58064A0420CD09E
:1022800004F58064A0420AD004F58064A0423FF4C3
:102290004AAF07244AE7012448E7022446E703241B
:1022A00044E7F0BD00000140000800580004004869
:1022B0000369194201D001207047002070470AB11C
:1022C000816170478162704700286DD030B587B05A
:1022D000044690F8A9323BB1032384F8A932206860
:1022E00002F023FC00231FE080F8A832FFF7D8FD9E
:1022F000F2E75A1C02EB820104EBC1010120487095
:1023000002EB820104F8313003EB830104EBC101DD
:10231000CB8602EB820C04EBCC0C00208CF8030083
:102320008863C8630864D3B260688342E1D3002342
:1023300016E003EB830204EBC202002182F869116C
:1023400082F8683182F86B11C2F87811C2F87C11FA
:1023500003EB830204EBC202C2F880110133DBB24B
:102360009842E6D8A4465CF8105BEE46BCE80F0045
:10237000AEE80F00DCF80030CEF80030231D0ECBA5
:10238000284602F0DCFB002384F82430012384F883
:10239000A932E369012B02D0002007B030BD2046EE
:1023A00000F004F80020F8E70120704703460268B7
:1023B0000121C0F8E812002083F8E002B2F854309E
:1023C0009BB20B43A2F85430B2F854309BB243F0A6
:1023D0000203A2F854307047024A136843F4807332
:1023E0001360704700040058024B186800F4C06086
:1023F000704700BF0004005830B58DB005468E46CA
:102400002B4C94E80F000DF1300C0CE90F0005ABDC
:1024100004F1100207CA83E807000DF1040C1C3414
:1024200094E80F008CE80F00BEF5007F07D0002372
:1024300014E00CAA02EB830353F82C5C1EE000238B
:10244000032B08D80CAA02EB830252F8102CAA42E4
:10245000EFD20133F4E7002510E00133022B0CD852
:102460000CAA02EB830252F81C2CAA42F5D30CAA48
:1024700002EB830353F82C5C00E000250D4A13683F
:1024800023F007032B431360FFF7BEFD0446094BFF
:102490001B6803F00703AB4206D0FFF7B5FD001B36
:1024A0000228F4D9032000E000200DB030BD00BFA9
:1024B00080AC00080040005810B5B02816D90E4B6B
:1024C000DC6A4FF0B043D3F8083103F00F030B4A36
:1024D00052F82300B4FBF0F4FFF786FF01460848EA
:1024E000A0FB0430800CFFF787FF10BDC0F3031082
:1024F000014B53F82040E4E758AD0008F8AC000861
:1025000083DE1B434FF0B0439B6813F00C030DD1E7
:102510004FF0B0431B6803F0F003B02B04D81B0945
:10252000254A52F823007047B023F8E7042B3ED029
:10253000082B10D04FF0B043DB6803F00303022BED
:1025400031D0032B0FD14FF0B0431B6813F4801F21
:102550002BD11A4812E04FF0B0431B6813F4801FD0
:1025600027D0174870474FF0B0431B6803F0F003C3
:10257000B02B16D81B09104A52F823004FF0B04276
:10258000D368C3F3062303FB00F0D368C3F302133D
:102590000133B0FBF3F0D3685B0F0133B0FBF3F012
:1025A0007047B023E6E70648E8E70548E6E7044851
:1025B00070470248704700BF58AD00080048E80166
:1025C0000024F40008B5FFF79DFF4FF0B0439B686F
:1025D000C3F30313024A52F82330B0FBF3F008BDF3
:1025E000F8AC0008002800F07D8338B50446036885
:1025F00013F0200F7FD04FF0B0429368D26802F002
:10260000030213F00C031DD00C2B19D0E369002B2F
:1026100000F09E804FF0B042136843F00103136056
:10262000FFF7F2FC05464FF0B0431B6813F0020FB2
:1026300052D1FFF7E9FC401B0228F4D903205CE3E8
:10264000012AE3D14FF0B0431B6813F0020F03D00F
:10265000E369002B00F04883606A4FF0B0431B68C9
:1026600003F0F003B02B20D8984220D9FFF724FFC5
:10267000002840F03B83636A4FF0B042116821F0BC
:10268000F0010B431360216A536823F47F4343EA4C
:1026900001235360FFF796FFAC4B1860AC4B1868F2
:1026A000FFF768FC38B3012027E3B023DCE74FF0E5
:1026B000B042136823F0F00318431060216A536896
:1026C00023F47F4343EA01235360606AFFF7F4FE7B
:1026D0000028DFD0012010E3636A4FF0B042116898
:1026E00021F0F0010B431360216A536823F47F4308
:1026F00043EA01235360236813F0010F4AD04FF0DF
:10270000B042936803F00C03D26802F00302082B76
:1027100036D00C2B32D06368B3F5803F63D04FF0D6
:10272000B042136823F4803313606368002B61D0D8
:10273000FFF76AFC05464FF0B0431B6813F4003FF7
:1027400028D1FFF761FC401B6428F4D90320D4E2B0
:102750004FF0B042136823F001031360FFF754FCFD
:1027600005464FF0B0431B6813F0020FC3D0FFF7CC
:102770004BFC401B0228F4D90320BEE2032ACAD135
:102780004FF0B0431B6813F4003F03D06368002B85
:1027900000F0AE82236813F0020F50D04FF0B04229
:1027A000936803F00C03D26802F00302042B33D0C9
:1027B0000C2B2FD0E368002B77D04FF0B04213687A
:1027C00043F480731360FFF71FFC05464FF0B043DE
:1027D0001B6813F4806F5ED1FFF716FC401B0228C4
:1027E000F4D9032089E24FF0B042136843F48033F8
:1027F00013609AE7FFF708FC05464FF0B0431B68EB
:1028000013F4003FC6D0FFF7FFFB401B6428F4D948
:10281000032072E2022ACDD14FF0B0431B6813F4BB
:10282000806F03D0E368002B00F0648221694FF0D1
:10283000B042536823F0FE4343EA016353602368C8
:1028400013F0180F00F0E7806269002A00F0B180F1
:1028500013F0100F7ED04FF0B043D3F8943013F044
:10286000020F38D14FF0B042D2F8943043F0010358
:10287000C2F89430FFF7C8FB05464FF0B043D3F8D9
:10288000943013F0020F26D1FFF7BEFB401B022845
:10289000F3D9032031E221694FF0B042536823F0AD
:1028A000FE4343EA01635360C9E74FF0B042136847
:1028B00023F480731360FFF7A7FB05464FF0B04386
:1028C0001B6813F4806FBAD0FFF79EFB401B0228F1
:1028D000F4D9032011E24FF0B042D2F8943043F023
:1028E0000403C2F89430FFF78FFB05464FF0B04366
:1028F000D3F8943013F0080F06D1FFF785FB401B87
:102900000328F3D90320F8E1A1694FF0B042D2F8CF
:10291000943023F4706343EA0123C2F89430D2F870
:10292000943023F00103C2F89430FFF76DFB0546A5
:102930004FF0B043D3F8943013F0020F6BD0FFF791
:1029400063FB401B0228F3D90320D6E108000020D6
:10295000100000204FF0B042D2F8943043F0010351
:10296000C2F89430FFF750FB05464FF0B043D3F860
:10297000943013F0020F06D1FFF746FB401B0228EC
:10298000F3D90320B9E14FF0B042D2F8943023F0EC
:102990000403C2F894304FF0B043D3F8943013F0EE
:1029A000080F38D0FFF730FB401B0328F3D9032072
:1029B000A3E14FF0B042D2F8943023F00403C2F800
:1029C0009430FFF721FB05464FF0B043D3F8943025
:1029D00013F0080F18D14FF0B042D2F8943023F022
:1029E0000103C2F89430FFF70FFB05464FF0B043E8
:1029F000D3F8943013F0020F0DD0FFF705FB401B06
:102A00000228F3D9032078E1FFF7FEFA401B0328E0
:102A1000DAD9032071E1236813F0040F68D0B74BB3
:102A20001B6813F4807F27D0A368012B35D0052BBA
:102A30003CD04FF0B043D3F8902022F00102C3F80D
:102A40009020D3F8902022F00402C3F89020A368CD
:102A5000DBB3FFF7D9FA05464FF0B043D3F8903017
:102A600013F0020F44D1FFF7CFFA401B41F2883335
:102A70009842F1D9032040E1FFF7AEFCFFF7C4FA1A
:102A800005469E4B1B6813F4807FCDD1FFF7BCFA3F
:102A9000401B0228F5D903202FE14FF0B042D2F8B5
:102AA000903043F00103C2F89030D0E74FF0B043CC
:102AB000D3F8902042F00402C3F89020D3F890207D
:102AC00042F00102C3F89020C1E7FFF79DFA0546E6
:102AD0004FF0B043D3F8903013F0020F08D0FFF757
:102AE00093FA401B41F288339842F1D9032004E164
:102AF000236813F0400F33D0A36AC3B14FF0B04244
:102B0000D2F8983043F00103C2F89830FFF77CFA0E
:102B100005464FF0B043D3F8983013F0020F1FD1A1
:102B2000FFF772FA401B0228F3D90320E5E04FF0CB
:102B3000B042D2F8983023F00103C2F89830FFF782
:102B400063FA05464FF0B043D3F8983013F0020F04
:102B500006D0FFF759FA401B0228F3D90320CCE036
:102B6000E36A002B00F0C8804FF0B042916801F09A
:102B70000C01D268022B23D00C2900F0C5804FF045
:102B8000B0431A6822F080721A60DA6822F00302F9
:102B9000DA60DA6822F0885222F48032DA60FFF7D5
:102BA00033FA04464FF0B0431B6813F0007F00F087
:102BB0009780FFF729FA001B0228F3D903209CE035
:102BC00002F00303206B83420AD00C2900F09A80A4
:102BD0004FF0B0431B6813F0806F22D001208CE0CF
:102BE00002F07003606B8342EFD1C2F30623A06B47
:102BF0008342EAD102F47813E06B8342E5D102F01C
:102C00006063206C8342E0D102F06042636C9A42C0
:102C1000DBD14FF0B0431B6813F0007F44D000209D
:102C20006BE04FF0B042136823F080731360FFF73E
:102C3000EBF905464FF0B0431B6813F0007F06D058
:102C4000FFF7E2F9401B0228F4D9032055E04FF0CA
:102C5000B042D3682A491940236B606B0343A06BD1
:102C600043EA0023E06B0343206C0343606C03439F
:102C70000B43D360136843F080731360D36843F051
:102C80008053D360FFF7C0F904464FF0B0431B6890
:102C900013F0007F06D1FFF7B7F9001B0228F4D923
:102CA00003202AE0002028E04FF0B0431A6842F0E9
:102CB00080721A60DA6842F08052DA60FFF7A4F995
:102CC00004464FF0B0431B6813F0007F06D1FFF7B6
:102CD0009BF9031B022BF4D903200EE000200CE02B
:102CE00000200AE001207047012006E0012004E0F6
:102CF000012002E0012000E0002038BD000400585F
:102D00008C80C1110120F8E70120F6E7002800F0CF
:102D1000278170B50C460546934B1B6803F00703EB
:102D20008B422DD32B6813F0020F3FD12B6813F089
:102D3000200F53D12B6813F0400F6AD12B6813F08A
:102D4000040F40F083802B6813F0080F40F0978049
:102D50002B6813F0010F00F0DE806B68022B00F08F
:102D6000A880032B00F0AD80002B40F0B2804FF024
:102D7000B042126812F0020F40F0B1800120EEE084
:102D8000794A136823F007030B431360FFF73CF9FC
:102D90000646754B1B6803F00703A342C2D0FFF73A
:102DA00033F9801B0228F4D90320D8E0AB684FF038
:102DB000B0418A6822F0F00213438B60FFF724F9D8
:102DC00006464FF0B0439B6813F4803FAED1FFF747
:102DD0001BF9801B0228F4D90320C0E06B694FF077
:102DE000B041D1F8082122F0F0021343C1F80831B4
:102DF000FFF70AF906464FF0B043D3F8083113F451
:102E0000003F97D1FFF700F9801B0228F3D9032078
:102E1000A5E0A9694FF0B042D2F8083123F00F03C2
:102E200043EA1113C2F80831FFF7EEF806464FF0F7
:102E3000B043D3F8083113F4803F7FF47FAFFFF73E
:102E4000E3F8801B0228F2D9032088E0EB684FF0FA
:102E5000B0418A6822F4E06213438B60FFF7D4F834
:102E600006464FF0B0439B6813F4003F7FF46BAF0E
:102E7000FFF7CAF8801B0228F3D903206FE0296905
:102E80004FF0B042936823F4605343EAC103936068
:102E9000FFF7BAF806464FF0B0439B6813F4802F53
:102EA0007FF456AFFFF7B0F8801B0228F3D9032058
:102EB00055E04FF0B042126812F4003F0FD10120EC
:102EC0004DE04FF0B042126812F0007F07D10120B0
:102ED00045E04FF0B042126812F4806F42D04FF0DC
:102EE000B0418A6822F0030213438B60FFF78CF82D
:102EF00006464FF0B0439B6803F00C036A68B3EBDF
:102F0000820F08D0FFF780F8801B41F28833984287
:102F1000EFD9032023E0144B1B6803F00703A342FF
:102F200015D9114A136823F0070323431360FFF7F1
:102F30006BF805460C4B1B6803F00703A34206D051
:102F4000FFF762F8401B0228F4D9032007E0FFF7DF
:102F500039FB064B1860FFF75DF8FFF70BF870BD03
:102F6000012070470120FAE70040005808000020C7
:102F700008B5FFF727FB4FF0B0439B68C3F302236C
:102F8000034A52F8233003F01F03D84008BD00BFA6
:102F900038AD000808B5FFF715FB4FF0B0439B684C
:102FA000C3F3C223034A52F8233003F01F03D8406F
:102FB00008BD00BF38AD000870B505464FF0B042FF
:102FC000136823F080631360FFF71EF804464FF088
:102FD000B0431B6813F0006F06D0FFF715F8001B15
:102FE0000228F4D9032400E000240CB1204670BD6F
:102FF0004FF0B0431A6922F4FE42296842EA0122E6
:103000001A611A6922F4781269680A431A611A6807
:1030100042F080621A60FEF7F7FF06464FF0B043B9
:103020001B6813F0006F05D1FEF7EEFF801B02282E
:10303000F4D90324002CD9D14FF0B0421369296987
:103040000B431361D2E770B505464FF0B0421368E9
:1030500023F080631360FEF7D7FF04464FF0B043C0
:103060001B6813F0006F06D0FEF7CEFF001B02288E
:10307000F4D9032400E000240CB1204670BD4FF0C9
:10308000B0431A6922F4FE42296842EA01221A6119
:103090001A6922F06062A9680A431A611A6842F04C
:1030A00080621A60FEF7B0FF06464FF0B0431B681F
:1030B00013F0006F05D1FEF7A7FF801B0228F4D99B
:1030C0000324002CD9D14FF0B042136929690B4376
:1030D0001361D2E770B505464FF0B042136823F094
:1030E00080631360FEF790FF04464FF0B0431B6807
:1030F00013F0006F06D0FEF787FF001B0228F4D9FB
:10310000032400E000240CB1204670BD4FF0B04312
:103110001A6922F4FE42296842EA01221A611A69F8
:1031200022F06042E9680A431A611A6842F080623C
:103130001A60FEF769FF06464FF0B0431B6813F0B4
:10314000006F05D1FEF760FF801B0228F4D903242D
:10315000002CD9D14FF0B042136929690B43136198
:10316000D2E770B50446036813F0400F2FD0036B0D
:10317000B3F5800F21D00AD833B90430FFF71CFF14
:10318000064658B1054624E001252E4621E0B3F558
:10319000000F1AD0B3F5400F0CD10026236B4FF06F
:1031A000B041D1F8882022F440021343C1F888309E
:1031B00000250EE001252E460BE04FF0B042D3680B
:1031C00043F48033D3600026E8E70026E6E70025D5
:1031D0002E46236813F4006F0AD04FF0B043D3F8A3
:1031E000905005F44075236CAB4240F0B7803546F3
:1031F000236813F0010F09D0A3694FF0B041D1F853
:10320000882022F003021343C1F88830236813F0AA
:10321000020F09D0E3694FF0B041D1F8882022F4C1
:1032200040621343C1F88830236813F0100F0CD0AC
:10323000A06A4FF0B041D1F88830020C120423EAA2
:10324000020343EA0043C1F88830236813F0200FDB
:103250000CD0E06A4FF0B041D1F88830020C120473
:1032600023EA020343EA0043C1F88830236813F0DD
:10327000040F40F0B480236813F0080F40F0C080C2
:10328000236813F4807F13D0636B4FF0B041D1F803
:10329000882022F040621343C1F88830636BB3F199
:1032A000006F00F0BE80636BB3F1806F00F0BE80F2
:1032B000236813F4007F17D0A36BB3F1804F05D0C0
:1032C000B3F1004F02D0002B40F0B8804FF0B04176
:1032D000D1F8882022F040421343C1F88830A36B14
:1032E000B3F1C05F00F0BC80236813F4806F13D08B
:1032F000E36B4FF0B041D1F8882022F040521343E5
:10330000C1F88830E36BB3F1005F00F0B080E36B8D
:10331000B3F1805F00F0B080236813F4805F09D0C0
:10332000636C4FF0B041D1F8942022F44042134333
:10333000C1F89430236813F4005F0DD0E26C4FF0B5
:10334000B043596A21F030010A435A62A26C596AAB
:1033500021F003010A435A62284670BDFFF73CF88A
:103360005DB9236C4FF0B041D1F8902022F4407247
:103370001343C1F8903035463AE74FF0B043D3F8E5
:103380009020D3F8901041F48031C3F89010D3F816
:10339000901021F48031C3F8901022F44072216C17
:1033A0000A43C3F89020D3F8903013F0010F12D0E5
:1033B000FEF72AFE05464FF0B043D3F8903013F0E5
:1033C000020F0AD1FEF720FE401B41F288339842DB
:1033D000F1D903250CE735460AE7354608E7236AA5
:1033E0004FF0B040D0F88820190901F47F2122EA7B
:1033F00001021B0103F47F231343C0F888303AE72E
:10340000636A4FF0B040D0F88820190901F47F2199
:1034100022EA01021B0103F47F231343C0F8883022
:103420002EE7CB6843F08073CB603CE7201DFFF7AD
:103430000AFE00283FF43CAF054639E723F08053ED
:103440004FF0B042D2F8881021F04041C2F8881005
:10345000D2F8881021F040610B43C2F888303EE773
:103460004FF0B042D36843F08073D3603CE7CB6841
:1034700043F48033CB604AE7201DFFF72BFE002882
:103480003FF44AAF054647E74FF0B042136843F0B8
:10349000040313607047000030B4036A23F0010393
:1034A0000362036A4568826922F4803222F0730263
:1034B0000C68224323F002038C682343154CA0427E
:1034C00007D004F5E054A04203D0A4F58064A042E4
:1034D00005D123F00803CC68234323F004030D4CEB
:1034E000A04207D004F5C054A04203D004F5806484
:1034F000A04207D125F4407C4C6944EA0C0C8D694C
:1035000045EA0C05456082614A684263036230BC4B
:10351000704700BF002C014030B4036A23F480736D
:103520000362036A4468C26922F4803222F07302A3
:103530000D682A4323F400738D6843EA0523124D76
:10354000A84219D0104DA84207D005F5C055A84291
:1035500003D005F58065A84207D124F440544D6995
:1035600044EA05148D6944EA05144460C2614A685E
:10357000C263036230BC704723F40063CD6843EA42
:10358000052323F48063DDE7002C014030B4036A97
:1035900023F480530362026A4468C36923F0807392
:1035A00023F4E6430D6843EA052322F400528D68B4
:1035B00042EA05320B4DA84207D005F5C055A84296
:1035C00003D005F58065A84204D124F480444D69F8
:1035D00044EA85144460C3614B680364026230BCF2
:1035E000704700BF002C014030B4036A23F48033DD
:1035F0000362036A4468426D22F4803222F0700252
:103600000D682A4323F400338D6843EA05430B4DCC
:10361000A84207D005F5C055A84203D005F580653E
:10362000A84204D124F480344D6944EA052444605E
:1036300042654A688265036230BC7047002C0140D5
:1036400030B4036A23F480130362026A4468436D52
:1036500023F0807323F4E0430D6843EA052322F44A
:1036600000128D6842EA05520B4DA84207D005F5BD
:10367000C055A84203D005F58065A84204D124F4C2
:1036800080244D6944EA8524446043654B68C365E2
:10369000026230BC704700BF002C014010B4036AC6
:1036A000046A24F001040462846924F0F00C4CEAFA
:1036B000021223F00A030B438261036210BC7047BD
:1036C00030B4046A24F0100404628469056A24F4A6
:1036D000407C4CEA022C2CF4704C1B039BB243EA56
:1036E0000C0325F0A005090101F0A0012943836125
:1036F000016230BC704710B4046A24F01004046204
:103700008469036A24F4704C4CEA023223F0A0036B
:1037100043EA01138261036210BC704730B4046A4B
:1037200024F480740462C469056A24F0030C4CEA32
:10373000020C2CF0F00C1B01DBB243EA0C0325F465
:103740002065090201F420612943C361016230BC94
:10375000704730B4046A24F480540462C469056A72
:1037600024F4407C4CEA022C2CF4704C1B039BB2DA
:1037700043EA0C0325F42045090301F420412943C1
:10378000C361016230BC7047836823F4401323F0A7
:1037900070030B4343F007038360704770470C29A5
:1037A00014D8DFE801F0071313130A1313130D13D2
:1037B000131310000368586B70470368986B7047C9
:1037C0000368D86B70470368186C70470020704717
:1037D000704770477047704710B5044603681A6910
:1037E00012F0020F11D0DA6812F0020F0DD06FF054
:1037F00002021A610123037703689B6913F0030F28
:1038000079D0FEF789F80023237723681A6912F02C
:10381000040F12D0DA6812F0040F0ED06FF0040219
:103820001A610223237723689B6913F4407F68D0D1
:103830002046FEF771F80023237723681A6912F0F7
:10384000080F12D0DA6812F0080F0ED06FF00802DD
:103850001A61042323772368DB6913F0030F57D021
:103860002046FEF759F80023237723681A6912F0DF
:10387000100F12D0DA6812F0100F0ED06FF0100295
:103880001A61082323772368DB6913F4407F46D04D
:103890002046FEF741F80023237723681A6912F0C7
:1038A000010F03D0DA6812F0010F3FD123681A69C3
:1038B00012F0800F03D0DA6812F0800F3DD1236838
:1038C0001A6912F4807F03D0DA6812F0800F3BD1BE
:1038D00023681A6912F0400F03D0DA6812F0400F23
:1038E00039D123681A6912F0200F03D0DA6812F078
:1038F000200F37D110BDFFF76CFF2046FFF76AFF9E
:1039000081E72046FFF765FF2046FFF763FF92E758
:103910002046FFF75EFF2046FFF75CFFA3E7204647
:10392000FFF757FF2046FFF755FFB4E76FF001029E
:103930001A612046FFF74CFFB8E76FF080021A616A
:10394000204600F002FDBAE76FF480721A6120464B
:1039500000F0FCFCBCE76FF040021A612046FFF764
:103960003AFFBEE76FF020021A61204600F0ECFC3F
:10397000C0E7000003681A4A904202D0B0F1804FBD
:1039800003D123F070034A681343154A90420AD0CA
:10399000B0F1804F07D002F5C052904203D002F53B
:1039A0008062904203D123F44073CA68134323F02A
:1039B00080034A69134303608B68C3620B688362A8
:1039C000074B984207D003F5C053984203D003F544
:1039D0008063984201D10B690363012343617047FF
:1039E000002C014060B310B5044690F83D3013B38D
:1039F000022384F83D30214651F8040BFFF7BAFF4B
:103A0000012384F8483084F83E3084F83F3084F84D
:103A1000403084F8413084F8423084F8433084F8F0
:103A2000443084F8453084F8463084F8473084F8D0
:103A30003D30002010BD80F83C30FEF78BF8D7E712
:103A40000120704760B310B5044690F83D3013B3C1
:103A5000022384F83D30214651F8040BFFF78AFF1A
:103A6000012384F8483084F83E3084F83F3084F8ED
:103A7000403084F8413084F8423084F8433084F890
:103A8000443084F8453084F8463084F8473084F870
:103A90003D30002010BD80F83C30FEF745F8D7E7F8
:103AA0000120704760B310B5044690F83D3013B361
:103AB000022384F83D30214651F8040BFFF75AFFEA
:103AC000012384F8483084F83E3084F83F3084F88D
:103AD000403084F8413084F8423084F8433084F830
:103AE000443084F8453084F8463084F8473084F810
:103AF0003D30002010BD80F83C30FFF74FFED7E787
:103B00000120704730B4036A23F010030362036A94
:103B10004468826922F0807222F4E6420D6842EA2B
:103B2000052223F020038D6843EA0513124DA842B5
:103B300019D0114DA84207D005F5C055A84203D0B1
:103B400005F58065A84207D124F440644D6944EA34
:103B500085048D6944EA8504446082614A68826311
:103B6000036230BC704723F08003CD6843EA05133D
:103B700023F04003DDE700BF002C014038B590F88A
:103B80003C30012B00F08C8004460D46012380F868
:103B90003C30142A1ED8DFE802F00B1D1D1D211D2C
:103BA0001D1D351D1D1D481D1D1D5C1D1D1D6F008E
:103BB0000068FFF771FC2268936943F00803936182
:103BC0002268936923F00403936122689369296949
:103BD0000B439361002084F83C0038BD0068FFF778
:103BE00091FF2268936943F40063936122689369AB
:103BF00023F48063936122689369296943EA01236E
:103C00009361E7E70068FFF787FC2268D36943F018
:103C10000803D3612268D36923F00403D3612268C7
:103C2000D36929690B43D361D4E70068FFF7AEFC81
:103C30002268D36943F40063D3612268D36923F413
:103C40008063D3612268D369296943EA0123D36180
:103C5000C0E70068FFF7C8FC2268536D43F0080313
:103C600053652268536D23F0040353652268536D36
:103C700029690B435365ADE70068FFF7E1FC226853
:103C8000536D43F4006353652268536D23F48063DE
:103C900053652268536D296943EA0123536599E707
:103CA00002209AE770B4046A24F001040462846973
:103CB000056A0D4EB04205D0B0F1804F02D044F0FD
:103CC000010202E024F00304224322F0F0021B016F
:103CD000DBB2134325F00A0201F00A0111438361AC
:103CE000016270BC704700BF002C014038B590F8ED
:103CF0003C30012B52D004460D46012380F83C3065
:103D0000C2B1042A27D0082A37D0CB684A6809688C
:103D10000068FFF71EFD2268D36923F44063D36176
:103D20002268D369A96843EA0123D361002084F89B
:103D30003C0038BDCB684A6809680068FFF7B2FFED
:103D40002268936923F00C03936122689369A96840
:103D50000B439361EAE7CB684A6809680068FFF79C
:103D6000AFFC2268936923F44063936122689369EE
:103D7000A96843EA01239361D8E7CB684A680968D8
:103D80000068FFF7CBFC2268D36923F00C03D361F2
:103D90002268D369A9680B43D361C7E70220C8E74B
:103DA00010B4846824F47F4C42EA03220A4342EAB6
:103DB0000C02826010BC704790F83C30012B64D03C
:103DC00010B50446012380F83C30022380F83D30D2
:103DD000026890682E4B034093600B68602B40D0C4
:103DE00022D8402B47D00BD9502B0ED1CA68496836
:103DF0002068FFF753FC50212068FFF7C5FC04E062
:103E0000202B0CD008D9302B09D0012384F83D3069
:103E1000002084F83C0010BD0BB1102BF5D11946E1
:103E20002068FFF7B1FCF0E7702B0ED0B3F5005F10
:103E3000EBD1CB684A6889682068FFF7B1FF226838
:103E4000936843F480439360DFE7CB684A688968EE
:103E50002068FFF7A5FF2268936843F0770393601B
:103E6000D3E7CA6849682068FFF745FC60212068ED
:103E7000FFF78AFCC9E7CA6849682068FFF70EFCAB
:103E800040212068FFF780FCBFE70220704700BF99
:103E90008800CEFF10B50468A26822F4401222F018
:103EA00070024B68134323F4803323F007030A683E
:103EB0001343A3604B68602B2CD00CD8402B14D03C
:103EC000502B06D10A6989680068FFF7E7FB0020DC
:103ED00028E0002026E0702B23D10B698A68C9688E
:103EE0000068FFF75DFF00201CE00B68052B1AD06F
:103EF00003681C6A1A6A22F001021A620268936956
:103F000023F0F003096943EA0113936103681C621B
:103F1000002007E00A6989680068FFF7ECFB0020D1
:103F200000E0002010BD0120FCE790F83C30012BA0
:103F300022D010B50446012380F83C30022380F8DB
:103F40003D30FFF7A7FF80B92268D36823F0400314
:103F5000D3602268D36823F48043D360012384F8BC
:103F60003D30002384F83C3010BD012084F83D0032
:103F7000002384F83C30F7E70220704701F01F016E
:103F8000012303FA01FC036A23EA0C030362036AB8
:103F900002FA01F10B4303627047000010B50446BA
:103FA000084671BB94F83E30DBB2013B18BF0123D9
:103FB000002B7BD100284FD1022384F83E30012210
:103FC00001462068FFF7DAFF23683B4A934207D097
:103FD00002F5C052934203D002F58062934203D1AE
:103FE0005A6C42F400425A642368334A93424FD0D9
:103FF000B3F1804F4CD01A6842F001021A600020E1
:1040000055E004290CD0082911D00C2916D010290C
:104010001BD094F84330DBB2013B18BF0123C7E744
:1040200094F83F30DBB2013B18BF0123C0E794F89E
:104030004030DBB2013B18BF0123B9E794F84130AF
:10404000DBB2013B18BF0123B2E794F84230DBB288
:10405000013B18BF0123ABE7042809D008280BD087
:104060000C280DD010280FD0022384F84330A6E787
:10407000022384F83F30A2E7022384F840309EE711
:10408000022384F841309AE7022384F8423096E70D
:1040900099680A4A0A40062A0AD0B2F5803F09D038
:1040A0001A6842F001021A60002000E0012010BDF1
:1040B0000020FCE70020FAE7002C01400700010087
:1040C00010B504460B4611BB90F83E00C0B2002B61
:1040D00039D194F84420D2B2012840F0A780012AB7
:1040E00040F0A580002B3ED1022284F83E20002B18
:1040F00055D1022284F844200C2B65D8DFE803F068
:104100005F646464766464647C646464820004292B
:1041100009D008290BD00C290DD010290FD090F808
:104120004300C0B2D3E790F83F00C0B2CFE790F8A9
:104130004000C0B2CBE790F84100C0B2C7E790F8AA
:104140004200C0B2C3E7042B05D0082B07D094F877
:104150004720D2B2C0E794F84520D2B2BCE794F829
:104160004620D2B2B8E7042B09D0082B0BD00C2B79
:104170000DD0102B0FD0022284F84320B7E7022283
:1041800084F83F20B3E7022284F84020AFE7022200
:1041900084F84120ABE7022284F84220A7E7042BF1
:1041A00005D0082B07D0022284F84720A4E702227A
:1041B00084F84520A0E7022284F846209CE7216885
:1041C000CA6842F00202CA60012219462068FFF75D
:1041D000D5FE2368184A93421AD0B3F1804F17D006
:1041E0001A6842F001021A60002020E02168CA68C3
:1041F00042F00402CA60E7E72168CA6842F0080298
:10420000CA60E1E72168CA6842F01002CA60DBE7D1
:1042100099680A4A0A40062A0AD0B2F5803F09D0B6
:104220001A6842F001021A60002000E0012010BD6F
:104230000020FCE70020FAE7002C01400700010005
:1042400090F83C30012B2BD030B4012380F83C3067
:10425000022380F83D30026853689468114DAA42E9
:1042600019D023F070030D682B43536003680D4A87
:10427000934202D0B3F1804F04D124F080048A68C5
:1042800014439C60012380F83D30002380F83C30CB
:10429000184630BC704723F470034D682B43E0E7A9
:1042A00002207047002C014090F83C30012B46D092
:1042B00010B4012380F83C30CB6823F440738A6843
:1042C000134323F480634A68134323F400630A68AA
:1042D000134323F480530A69134323F400534A69B8
:1042E000134323F480430A6B134323F470238A6936
:1042F00043EA02430268134CA24209D0114CA24285
:104300000BD05364002380F83C30184610BC704733
:1043100023F08053CC692343F0E723F470038C6AC5
:1043200043EA045323F080730C6A234323F00073A1
:104330004C6A234323F00053C96A0B43E1E7022090
:10434000704700BF002C0140704770477047000065
:1043500070B50446016883680269134342691343D8
:10436000C269134308688B4A024013430B602268FA
:10437000536823F44053E1680B435360A1692268FA
:10438000854B9A4201D0236A1943936823F06E4308
:1043900023F430630B4393602268D36A23F00F0346
:1043A000616A0B43D36222687C4B9A4214D07A4BE9
:1043B0009A4225D0102378498A4240D0E069B0F56E
:1043C000004F7AD0013B072B00F2D680DFE803F0E4
:1043D000A5A3D4BED4D4D4C14FF0B043D3F8883011
:1043E00003F00303032B09D8DFE803F002041F06E0
:1043F0000123E0E70423DEE70823DCE71023DAE704
:104400004FF0B043D3F8883003F44063B3F5006F46
:104410000DD005D86BB1B3F5806F0CD10423CAE77A
:10442000B3F5406F09D10823C5E70223C3E7022390
:10443000C1E70023BFE71023BDE71023BBE7082B2C
:1044400000F28A80DFE803F008883788348888889B
:1044500005004FF4004003E0FEF78AFD00287DD000
:10446000626A4F4B33F81220B0FBF2F3656805EB3C
:104470004501994274D8B3EB053F73D80026334603
:104480003146FCF797FA090241EA106100026B0815
:10449000C0182A46334641F10001FCF78BFAA0F51B
:1044A0004072404B9A425FD82368D860304664E03F
:1044B000FEF728F8D2E73C48D2E7013B072B55D856
:1044C000DFE803F0060454265454540A364803E047
:1044D000FEF760FD00284BD0626A314B33F8123092
:1044E000B0FBF3F06268530803EB4000B0FBF2F05E
:1044F00080B2A0F110024FF6EF739A423AD820F042
:104500000F03C0F3420018432368D860002034E052
:10451000FDF7F8FFDEE7244802E0FEF73BFDA8B315
:10452000626A1F4B33F81230B0FBF3F0636800EBA4
:104530005300B0FBF3F080B2A0F110024FF6EF731E
:104540009A4225D82368D860002016E0FDF7DAFFEC
:10455000E5E74FF40040E3E701200EE000200CE027
:1045600001200AE0012008E0012006E0012004E02B
:10457000002002E0012000E001200123A4F86A30BD
:10458000A4F8683000232367636770BD0020F4E758
:104590000120F2E7F369FFCF0080004000380140BE
:1045A00098AD0008FFFC0F000024F400836A13F0AC
:1045B000010F06D00268536823F40033C16A0B432D
:1045C0005360836A13F0020F06D00268536823F425
:1045D0008033016B0B435360836A13F0040F06D0E2
:1045E0000268536823F48023416B0B435360836A52
:1045F00013F0080F06D00268536823F40043816B60
:104600000B435360836A13F0100F06D0026893685F
:1046100023F48053C16B0B439360836A13F0200F24
:1046200006D00268936823F40053016C0B43936037
:10463000836A13F0400F0AD00268536823F4801392
:10464000416C0B435360436CB3F5801F0BD0836AFE
:1046500013F0800F06D00268536823F40023C16C66
:104660000B43536070470268536823F4C003816CA6
:104670000B435360EBE72DE9F84305460F4616461A
:104680009946DDF820802C68E46937EA04030CBF02
:104690004FF0010C4FF0000CB44541D1B8F1FF3F91
:1046A000F1D0FDF7B1FCA0EB0900404524D8B8F1EA
:1046B000000F21D02B681A6812F0040FE3D0DA69DA
:1046C00012F4006FDFD04FF400621A622A68136898
:1046D00023F4D07313602A68936823F00103936076
:1046E0002023C5F88430C5F88830C5F88C30002305
:1046F00085F88030032014E02A68136823F4D0730F
:1047000013602A68936823F0010393602023C5F89F
:104710008430C5F88830002385F88030032000E01D
:104720000020BDE8F8832DE9F04182B01E46D0F8A4
:104730008430202B58D104460D469046002957D08E
:10474000002A57D090F88030012B55D0012380F8F3
:1047500080300023C0F88C302123C0F88430FDF76E
:1047600053FC0746A4F85480A4F85680A368B3F518
:10477000805F05D04FF00008002384F8803014E0FB
:10478000236913B14FF00008F6E7A8460025F3E7C8
:1047900038F8023B2268C3F308039362B4F856204A
:1047A00092B2013A92B2A4F85620B4F856309BB2B5
:1047B00073B100963B46002280212046FFF75BFF45
:1047C000E0B9002DE4D015F8012B23689A62E5E7E3
:1047D00000963B46002240212046FFF74CFF78B967
:1047E0002023C4F8843000E0022002B0BDE8F0814C
:1047F0000120FAE70120F8E70220F6E70320F4E7BA
:104800000320F2E72DE9F04383B01E46D0F888304C
:10481000202B40F0818004460D46904600297FD031
:10482000002A7FD090F88030012B7DD0012380F8C2
:1048300080300023C0F88C302222C0F88820C36664
:10484000FDF7E2FB0746A4F85C80A4F85E80A3684D
:10485000B3F5805F06D0A3B9226972B9FF22A4F82C
:10486000602014E0226922B940F2FF12A4F860200F
:104870000DE0FF22A4F8602009E07F22A4F8602068
:1048800005E0B3F1805F0DD00022A4F86020B4F8F9
:104890006080B3F5805F0FD04FF00009002384F8EB
:1048A00080301EE022691AB97F22A4F86020EEE76A
:1048B0003F22A4F86020EAE7236913B14FF0000912
:1048C000ECE7A9460025E9E723685B6A08EA0303E9
:1048D00029F8023BB4F85E2092B2013A92B2A4F8F1
:1048E0005E20B4F85E309BB28BB100963B4600224E
:1048F00020212046FFF7BFFEC0B9002DE4D0236879
:104900005A6A5FFA88F3134005F8013BE2E7202377
:10491000C4F88830002000E0022003B0BDE8F08336
:104920000120FAE70120F8E70220F6E70320F4E788
:1049300030B583B004460023C0F88C30FDF764FB2B
:1049400005462268126812F0080F0FD123681B6811
:1049500013F0040F18D12023C4F88430C4F8883031
:104960000020E06684F8800003B030BD6FF07E4325
:104970000093034600224FF400112046FFF77BFE10
:104980000028E3D00320EFE76FF07E4300932B462F
:1049900000224FF480012046FFF76DFE0028DAD098
:1049A0000320E1E778B310B50446D0F884300BB3A8
:1049B0002423C4F884302268136823F001031360B1
:1049C0002046FFF7C5FC012813D0A36ABBB92268B3
:1049D000536823F4904353602268936823F02A03BA
:1049E00093602268136843F0010313602046FFF7C9
:1049F0009FFF10BD80F88030FDF7DEF9D8E7204634
:104A0000FFF7D4FDE3E7012070470000436E2BB9A8
:104A10000123A0F86A30A0F86830704730B403680A
:104A20009A68C2F342629968490F094D6B5CDB00DA
:104A3000084C615C93FBF1F3A0F86A30AB5CDB00DF
:104A4000A25C93FBF2F3A0F8683030BC704700BF63
:104A5000B8AD0008B0AD000890F88030012B18D038
:104A6000012380F880302423C0F8843003681A685A
:104A7000196821F00101196022F0005200234366F9
:104A800001680A602022C0F8842080F8803018462F
:104A900070470220704738B590F88030012B1DD048
:104AA0000446012380F880302423C0F88430036852
:104AB0001D681A6822F001021A600268936823F0E8
:104AC000604319439160FFF7A1FF23681D60202315
:104AD000C4F88430002084F8800038BD0220FCE750
:104AE00038B590F88030012B1DD00446012380F8A2
:104AF00080302423C0F8843003681D681A6822F0CF
:104B000001021A600268936823F0606319439160A0
:104B1000FFF77CFF23681D602023C4F88430002049
:104B200084F8800038BD0220FCE7B0F8403023F460
:104B30007E535B045B0CA0F840300020704784B0CB
:104B4000844601A880E80E000123ACF84030002024
:104B5000ACF84000ACF84400ACF8500004B070472A
:104B6000014B1868704700BF1400002070B50D4E4F
:104B70000D4D761BB61006D0002455F8043B0134C9
:104B80009847A642F9D1094E094D761B06F06CF8FC
:104B9000B61006D0002455F8043B01349847A642CD
:104BA000F9D170BDC8B10008C8B10008D0B1000883
:104BB000C8B10008830730B548D0541E002A3FD042
:104BC000CAB2034601E0013C3AD303F8012B9D072A
:104BD000F9D1032C2DD9CDB245EA05250F2C45EA94
:104BE000054536D9A4F1100222F00F0C03F1200E76
:104BF000E6444FEA121C03F1100242E9045542E96F
:104C0000025510327245F8D10CF1010214F00C0F6C
:104C100003EB021204F00F0C13D0ACF1040323F0E9
:104C200003030433134442F8045B9342FBD10CF0BA
:104C300003042CB1CAB21C4403F8012B9C42FBD1E3
:104C400030BD64461346002CF4D1F9E70346144600
:104C5000BFE71A46A446E0E70FB400B5074983B0A2
:104C600004AB086853F8042B8168019300F0E0F866
:104C700003B05DF804EB04B0704700BF14000020DF
:104C80002DE9F043694CD4F8008083B004460E4609
:104C900017461D46B8F1000F03D0D8F83830002B66
:104CA00077D0022F05D0012F00F2AC80002DC0F28A
:104CB000A980636EDA0752D52146404602F062FFB2
:104CC000216B41B104F14003994202D0404603F008
:104CD00085F800232363B4F90CC000231CF0800F77
:104CE000A361636064D12CF44A6C2CF0030C022F96
:104CF000A4F80CC06AD001AB6A462146404603F0D6
:104D000013FAA3891843A081002D2FD0002E2ED096
:104D1000D8F83830002B38D0009B2660AB42B4F96D
:104D20000C301CBF43F40063A381012F04BF43F088
:104D30000103A3819AB213F00803C4E904652CD0DF
:104D4000D1075DD56D42A561656E002315F00105A3
:104D5000A36027D00025284603B0BDE8F083A389CF
:104D60009B05A9D4A06D03F06BF9A5E7009D28462B
:104D700003F00AFA0646002847D0A38943F08003CF
:104D8000A381D8F83830002BC6D1404602F02EFF60
:104D9000C2E7404602F02AFF83E7A360656E15F084
:104DA0000105D7D1930524D5284603B0BDE8F0838B
:104DB0002169404603F012F8B4F90CC02CF44A6C97
:104DC0002CF0030C022FA4F80CC094D10025002273
:104DD00004F14303A2600122C4E904322360636E3C
:104DE0004CF0020CD807A4F80CC0DDD41CF4007FF2
:104DF000DAD1A06D03F026F9284603B0BDE8F083B0
:104E0000A560CBE74FF0FF35CEE7DDF80090A94570
:104E100004D0484603F0B8F9064620B9B4F90CC0EE
:104E20004FF0FF35D3E74D46A7E700BF1400002041
:104E30002DE9F04FD5B01C460791914605460990E3
:104E400003F0F6F80268179210460E94FCF738F853
:104E500016901DB1AB6B002B00F02A82079A536E9F
:104E6000DD0740F13881B2F90C2091B28F0409D4EA
:104E7000079B42F400529A8191B21A465B6E23F46A
:104E8000005353660E0740F1CB80079B1B69002B34
:104E900000F0C68001F01A030A2B00F0CF80002436
:104EA0002BAB4D46CDE92944CDE91944CDE91B444E
:104EB000129428939846189400230B940024CDE96B
:104EC00014342B78002B00F09D81AA4604E01AF8D8
:104ED000013F002B00F0C780252BF8D1BAEB050667
:104EE00040F0C5809AF80030002B00F08B81002341
:104EF0004FF0FF329AF801608DF883300A930AF17F
:104F0000010A08921F462B244FF020090AF1010ADA
:104F1000A6F120035A2B00F2ED80DFE813F0EB023C
:104F2000EB00EB00E602EB00EB00EB006A00EB00AD
:104F3000EB005C028002EB0067028A02EB00850254
:104F40005B005B005B005B005B005B005B005B0089
:104F50005B00EB00EB00EB00EB00EB00EB00EB0089
:104F60007A01EB00F801D2017A017A017A01EB00B3
:104F7000EB00EB00EB00E102EB00EB002D02EB009D
:104F8000EB00EB000202EB00A402EB00EB00830756
:104F9000EB00EB00EB00EB00EB00EB00EB00EB00B9
:104FA0007A01EB00F801D4017A017A017A01C70293
:104FB000D401CD01EB00D402EB006C022F02B5024C
:104FC000CD01EB0002027E008007EB00EB006107E1
:104FD000EB007E00A6F1300300221AF8016B02EB11
:104FE000820203EB4202A6F13003092BF5D90A92A3
:104FF0008EE7DDF824B0584603F01AF843681B9397
:105000001846FBF75DFF1C900646584603F010F863
:1050100083681993002E40F0CD869AF8006075E7FA
:10502000079D0998294601F0ADFC002841F01C833A
:10503000A98901F01A030A2B7FF431AF079AB2F95C
:105040000E30002BFFF62BAF536ED80702D4890524
:1050500041F13B810799099823464A4655B0BDE87E
:10506000F04F01F04FBCBAEB050600F0CB802A9B55
:1050700033442A93299B0133072BC8E9005629930F
:1050800005DC08F108080B9B33440B932AE70799CA
:10509000099828AA03F0E4FF80B90DF1AC08F2E703
:1050A0000799099828AA03F0DBFF002800F09B80ED
:1050B0000D9B1BB10998194602F090FE079A536E9A
:1050C000D90740F1EA8093895B0601F1D9820B98F8
:1050D00055B0BDE8F08F079BB3F90C20900591B255
:1050E0003FF5C4AE1D46986D02F0AAFFB5F90C203D
:1050F00091B2BBE6002E00F0858000228DF8EC60B6
:105100008DF883200123CDE90C32069308920F928B
:10511000139210923BAD17F0020302D006990231B0
:10512000069117F0840B07D10A990698A1EB0009A4
:10513000B9F1000F00F370832A9C8AB1299A0DF10E
:10514000830101320134C8F80010072A4FF0010131
:105150002A942992C8F8041000F3B68308F10808CD
:1051600083B1299B21AA01330234C8F80020072B00
:105170004FF002022A942993C8F8042000F3B28366
:1051800008F10808BBF1800F00F06982089B0C9AB7
:10519000A3EB020BBBF1000F00F3AA82FB0500F1A9
:1051A00000820C9BC8F804301C44299BC8F80050AE
:1051B0000133072B2A94299300F3228308F108086E
:1051C000780705D50A9B069A9D1A002D00F3968351
:1051D000DDE90A2306998A42ACBF9B185B180B9342
:1051E000002C7FF45DAF002329930D9B1BB10D991B
:1051F000099802F0F3FD0DF1AC0855462B78002B11
:105200007FF463AE2A9B002B41F0D38100232993C6
:1052100054E70E9B073323F00702F2E80234CDE98E
:105220001434DDE9143424F000440E9299461846F3
:105230002146B54B4FF0FF32FCF74AF9002840F009
:10524000EF84B14B484621464FF0FF32FCF722F97C
:10525000002840F0E584DDE9140100220023FCF77A
:105260000FF9002840F067879DF88320A74DA84BD1
:1052700027F080070321472EC8BF1D4600230D934A
:1052800006910C9108930F9313931093002A3FF407
:1052900042AF069B013306933DE7079B9B899A0526
:1052A0003FF512AF079CA06D02F0CCFEA3890BE77F
:1052B000099802F09BFCD1E59AF8006047F02007BE
:1052C00024E647F01007BA060E9B40F13B840733F3
:1052D00023F007031A465B6852F8084B0E92994672
:1052E000002BC0F24C84089B013300F0D88254EAB2
:1052F000090327F0800B40F0D382089B002B40F07D
:10530000D4825F46002308930C9354AD1DE10E9B9D
:10531000002253F8041B8DF883208DF8EC100E93B7
:10532000F0E60E9C089B54F8045B4FF000098DF8E2
:105330008390002D00F093855A1C00F051861A4688
:1053400049462846FBF7BCFC0D90002801F00E8171
:105350000D9BCDF820905B1B0C930E9423EAE37316
:105360009DF883200693CDF83490CDF83C90CDF88D
:105370004C90CDF8409089E747F0100717F02009CE
:1053800000F0D2830E9B073323F00703D3F8049079
:1053900053F8084B0E9327F4806B002300228DF8FE
:1053A0008320089A511C00F0B88054EA09012BF0C0
:1053B000800740F0B180002A40F0F685002BA1D193
:1053C0001BF001030C9300F0148430238DF84F314F
:1053D0000DF24F15B9E00E9B53F8042B0A92002AE8
:1053E00080F2DA830A9A0E9352420A929AF8006087
:1053F00047F004078AE5BD0600F1D184FC0600F100
:10540000D885780600F1A586B90540F1D2850E9BB6
:105410000B9953F8042B0E9311705546EEE69AF84B
:1054200000608DF8834071E59AF8006047F08007CE
:105430006CE5524612F8016B2A2E01F03F82A6F16C
:105440003003092B924698BF002201F2BC801AF863
:10545000016B02EB820203EB4202A6F13003092B3F
:10546000F5D9089254E547F0100B1BF0200900F025
:1054700076830E9B073323F00703D3F8049053F889
:10548000084B0E93012389E70E9B53F8044B0E93B0
:10549000302378268DF884301E4B189347F0020B8A
:1054A0008DF885604FF00009022377E79AF80060D5
:1054B000682E03BF9AF8016047F400770AF1010AE9
:1054C00047F0400722E59AF800606C2E03BF9AF877
:1054D000016047F020070AF1010A47F0100715E5BF
:1054E0009AF8006047F0080710E59AF8006047F066
:1054F00001070BE59DF88330002B7FF48EAD9AF801
:1055000000608DF8839001E5FFFFEF7FC4AD0008D8
:10551000C8AD0008D4AD0008BB46012B00F0C08127
:10552000022B54AD20D1189A04F00F032409D35C48
:1055300005F8013D44EA09744FEA191954EA0903D0
:10554000F2D154AB5B1B5F460C9308990C989DF805
:10555000832081424FF00003B8BF01460D930691AE
:105560000F931393109391E604F00703E40844EAC1
:1055700049744FEAD909303354EA09012A4605F83B
:10558000013DF1D11BF0010FDBD0302BD9D03023FE
:10559000023A05F8013C54AB9B1A5F460C93154642
:1055A000D3E7652E40F3E680DDE9140100220023F5
:1055B000FBF75CFF002800F0DC81299BBF4AC8F89C
:1055C0000020013301340122072B2A942993C8F8C3
:1055D000042000F3CC8408F10808229B129A93421D
:1055E00080F2D682169B179A1C44C8E90023299B97
:1055F0002A940133072B299300F3248408F1080827
:10560000129B5D1E002D7FF7DBAD102D299BDFF86F
:10561000B09240F3BD8449462246B946DDF824B035
:10562000079C10260F4605E008F10808103D102DD4
:1056300040F3AA8401331032072BC8E90076CDE984
:105640002932F1DD28AA2146584603F009FD002839
:105650007FF42EADDDE929320DF1AC08E6E70A9BB7
:10566000069AA3EB020BBBF1000F7FF78FADBBF1E6
:10567000100F299ADFF848922CDD1D9621464E46E0
:10568000079CDDF82490102306E0ABF1100BBBF172
:10569000100F08F108081ADD01321031072AC8E995
:1056A0000063CDE92921F0DD28AA214648460DF105
:1056B000AC0803F0D5FC00287FF4FAACABF1100B7A
:1056C000BBF1100FDDE929214FF01003E4DCB146F6
:1056D0001D9E0C4601325C44072ACDE92924C8F8F6
:1056E0000090C8F804B000F3A08308F108084DE565
:1056F000BBF1100F299ADFF8C8912DDD41462046F5
:10570000A8464C46079DDDF82490102306E0ABF137
:10571000100BBBF1100F01F1080119DD013210303F
:10572000072AC1E90043CDE92920F0DD28AA29464E
:10573000484603F095FC00287FF4BAACABF1100B9F
:10574000BBF1100FDDE929202BA94FF01003E5DC98
:105750004546A1468846044601325C44072ACDE905
:105760002924C8F80090C8F804B000F3D08108F1EB
:10577000080813E5129B012B40F38081299EC8F88D
:105780000050013601340123072E2A942996C8F8C7
:10579000043000F37C8308F10808169B179A013641
:1057A0001C44072EC8E90023CDE9296400F37C835B
:1057B00008F10808DDE9140100220023FBF756FE7A
:1057C000002840F07881129B0136013B01351C44D2
:1057D000072EC8F800502996C8F804302A9400F320
:1057E0005D8108F108081A9BC8F8043001361C4492
:1057F000072E24ABCDE92964C8F800307FF7DEAC72
:105800000799099828AA03F02BFC00287FF450ACD4
:105810002A9C0DF1AC08D3E4B9F1100FDDE9292180
:105820002BDDCDE91D3B1F96DDF824B04E4610243C
:10583000A946079D04E0103E102E08F1080817DD68
:105840000132204B1031072AC8E90034CDE9292163
:10585000F1DD28AA294658460DF1AC0803F000FCFA
:1058600000287FF425AC103E102EDDE92921E7DC6D
:10587000DDE91D3B4D46B1461F9EC8F8049001323C
:1058800009EB0104072A0F49C8F80010CDE92924C3
:1058900000F351839DF8832008F108084DE4BB46CE
:1058A0000A2C79F1000380F00C83303401238DF849
:1058B0004F415F460C930DF24F1546E604AE0008CB
:1058C00018AE000808AE0008079909981D9328AA89
:1058D00003F0C6FB00287FF4EBAB2A9C1D9B0DF167
:1058E000AC083DE40799099828AA03F0B9FB002801
:1058F0007FF4DEAB2A9C0DF1AC0843E4102D299B0C
:1059000021DD099FDDF81C90102604E0103D102DCC
:1059100008F1080817DD0133BB4A1034072BC8E92A
:105920000026CDE92934F1DD28AA494638460DF193
:10593000AC0803F095FB00287FF4BAAB103D102DA6
:10594000DDE92934E7DC0133AF4AC8F804502C44C0
:10595000072BCDE92934C8F800207FF739AC079927
:10596000099828AA03F07CFB00287FF4A1AB2A9CAD
:105970002EE42299002940F31481DDF84090129B17
:105980009945A8BF9946B9F1000F0BDD299B01335A
:105990004C44072BC8E900592A94299300F39A85AF
:1059A00008F10808109EB9F1000FA8BFA6EB090680
:1059B000002E00F34683DDF840B07905AB4400F1DA
:1059C000CE84229B129A934202DBFA0740F1B883FD
:1059D000169A17991444C8E90012299A2A94013298
:1059E000072A299200F3838508F10808129AAE1855
:1059F000A6EB0B06D51AAE42A8BF2E46002E0DDD33
:105A0000299BC8F800B001333444072BC8F8046060
:105A10002A94299300F3F18508F10808002EA8BF05
:105A2000AD1B002D7FF7CCAB102D299BDFF8DC914F
:105A300040F3AE8249462246B946DDF824B0079CC1
:105A400010260F4605E008F10808103D102D40F320
:105A50009B8201331032072BC8E90076CDE9293249
:105A6000F1DD28AA2146584603F0FAFA00287FF40F
:105A70001FABDDE929320DF1AC08E6E7FE073FF583
:105A80007DAE299EC8F80050013601340123072E4F
:105A90002A942996C8F804307FF7A3AE079909988D
:105AA00028AA03F0DDFA00287FF402ABDDE92964BF
:105AB0000DF1AC0897E6129B5D1E002D7FF793AEAB
:105AC000102DDFF8489140F37F8222460897099C09
:105AD000079F4FF0100B05E008F10808103D102D4E
