:020000040800F2
:1000000000000320C50900088706000889060008CB
:100010008B0600088D0600088F060008000000000F
:100020000000000000000000000000009106000831
:1000300093060008000000009506000897060008D7
:10004000190A0008190A0008190A0008190A000804
:10005000190A0008190A0008190A0008190A0008F4
:10006000190A0008190A0008190A0008190A0008E4
:10007000190A0008190A0008190A0008190A0008D4
:10008000190A0008190A0008190A0008190A0008C4
:10009000190A0008190A0008190A0008190A0008B4
:1000A000190A0008190A0008190A0008190A0008A4
:1000B000190A0008190A0008190A0008190A000894
:1000C000190A0008190A0008190A0008190A000884
:1000D000190A0008190A0008190A0008190A000874
:1000E000190A0008190A0008190A0008190A000864
:1000F000190A0008190A0008190A0008190A000854
:10010000190A0008190A0008190A0008190A000843
:10011000190A0008190A0008190A0008190A000833
:10012000190A0008190A0008190A0008190A000823
:0C013000190A0008190A0008190A000842
:10013C0010B5054C237833B9044B13B10448AFF315
:10014C0000800123237010BD440400200000000037
:10015C00A82D000808B5034B1BB103490348AFF3A6
:10016C00008008BD0000000048040020A82D0008F5
:10017C0053B94AB9002908BF00281CBF4FF0FF3102
:10018C004FF0FF3000F074B9ADF1080C6DE904CEFE
:10019C0000F006F8DDF804E0DDE9022304B0704756
:1001AC002DE9F047089E0D4604468846002B4DD19C
:1001BC008A42944668D9B2FA82F252B101FA02F339
:1001CC00C2F1200120FA01F10CFA02FC41EA030809
:1001DC0094404FEA1C45210CB8FBF5FE1FFA8CF736
:1001EC0005FB1E8341EA03430EFB07F199420BD931
:1001FC001CEB03030EF1FF3080F01E81994240F29C
:10020C001B81AEF1020E63445B1AA4B2B3FBF5F092
:10021C0005FB103344EA034400FB07F7A7420AD955
:10022C001CEB040400F1FF3380F00881A74240F27C
:10023C00058164440238E41B40EA0E4000211EB1E3
:10024C00D4400023C6E90043BDE8F0878B4208D9AF
:10025C00002E00F0EE800021C6E900050846BDE83E
:10026C00F087B3FA83F100294AD1AB4202D3824220
:10027C0000F2F980841A65EB030301209846002EE6
:10028C00E2D0C6E90048DFE702B9FFDEB2FA82F23B
:10029C00002A40F09180A1EB0C054FEA1C471FFA95
:1002AC008CFE0121B5FBF7F307FB1350250C45EA37
:1002BC0000450EFB03F0A84208D91CEB050503F121
:1002CC00FF3802D2A84200F2CB8043462D1AA4B2CA
:1002DC00B5FBF7F007FB105544EA05440EFB00FE96
:1002EC00A64508D91CEB040400F1FF3502D2A64543
:1002FC0000F2BB802846A4EB0E0440EA03409EE7C4
:10030C00C1F120078B4022FA07FC4CEA030C20FABF
:10031C0007F405FA01F31C43FD404FEA1C4900FAAF
:10032C0001F3B5FBF9F8200C1FFA8CFE09FB1855EC
:10033C0040EA054508FB0EF0A84202FA01F20BD97F
:10034C001CEB050508F1FF3A80F08880A84240F2CA
:10035C008580A8F1020865442D1AA4B2B5FBF9F00A
:10036C0009FB105544EA054500FB0EFEAE4508D9C5
:10037C001CEB050500F1FF346CD2AE456AD902388E
:10038C00654440EA0840A0FB0294A5EB0E05A5428B
:10039C00C846A64656D353D05EB1B3EB080265EB04
:1003AC000E0505FA07F722FA01F3CD401F43C6E903
:1003BC0000750021BDE8F087C2F1200320FA03F19B
:1003CC000CFA02FC25FA03F395400D434FEA1C4747
:1003DC001FFA8CFEB3FBF7F107FB11302B0C43EA31
:1003EC00004301FB0EF0984204FA02F408D91CEB0E
:1003FC00030301F1FF382FD298422DD902396344FF
:10040C001B1AADB2B3FBF7F007FB103345EA0345FB
:10041C0000FB0EF3AB4208D91CEB050500F1FF38CD
:10042C0016D2AB4214D902386544ED1A40EA0141A8
:10043C0038E73146304607E78646E5E61846FAE6E1
:10044C004B45A9D2B9EB020864EB0C0E0138A3E7BB
:10045C004046EAE7204694E74146D1E7D0467BE7A1
:10046C00023B654432E7084609E76444023842E738
:10047C00704700BF30B58BB00024059406940794E8
:10048C00089409944FF0B043DA6C42F00402DA6439
:10049C00DA6C02F004020492049ADA6C42F0010263
:1004AC00DA64DA6C02F001020392039ADA6C42F01D
:1004BC000202DA64DA6C02F002020292029ADA6C3C
:1004CC0042F00802DA64DB6C03F008030193019B31
:1004DC00104D22462321284600F02AFC10230593B8
:1004EC000694079405A90C4800F05AFB23230593A6
:1004FC00012306930794089405A9284600F050FBA5
:10050C00032305930694079405A9044800F048FBBF
:10051C000BB030BD0004004800080048000C004837
:10052C0072B6FEE730B5AFB0482200211CA802F02D
:10053C0073FB0024159416941794189419941A9418
:10054C001B945022214601A802F066FB4FF0B045E7
:10055C00EB6823F07003EB60EB6823F0030343F0CC
:10056C000103EB6000F072FCD5F8903023F0180317
:10057C00C5F890302B4A136823F4C06343F400731E
:10058C001360136803F4C0630093009B27231C9330
:10059C004FF480331D9301231E934FF480721F92EE
:1005AC0023934023209324946023259327941CA801
:1005BC0000F052FD00282ED16F23159302231693C1
:1005CC0000231793189319931A931B93012115A8C1
:1005DC0001F0D6F808BB42F20113019318230293E1
:1005EC004FF4003303934FF0007304934FF0005318
:1005FC0005934FF080730693002307934FF08062AE
:10060C000E921393149301A801F0E5FA38B901F096
:10061C0075FC2FB030BDFFF783FFFFF781FFFFF7AD
:10062C007FFF00BF0004005810B500F019FAFFF767
:10063C0079FFFFF71FFF00F095F800F0FBF800F0D2
:10064C0063F90C4803686322DA62C26031225A6390
:10065C00002101F0A5FE0BE0064803685C63002155
:10066C0001F09EFE642000F029FA0A34632CF3DDBD
:10067C000024FBE7600400207047FEE7FEE7FEE77E
:10068C00FEE7FEE770477047704708B500F0FEF9CB
:10069C0008BD00004FF0B0431A6842F001021A6026
:1006AC004FF4E0229A601968A2F1A262A2F205123C
:1006BC000A401A60D3F8942022F00502C3F8942063
:1006CC00D3F8982022F00102C3F89820044ADA608B
:1006DC001A611A6822F480221A6000229A6170470B
:1006EC00001004220268094B9A4200D0704782B075
:1006FC004FF0B0431A6E42F400621A661B6E03F49C
:10070C0000630193019B02B0704700BF002C0140B5
:10071C0000B587B0002301930293039304930593D0
:10072C0002680F4B9A4202D007B05DF804FB4FF001
:10073C00B043DA6C42F00102DA64DB6C03F00103C3
:10074C000093009B4FF480730193022302930123C7
:10075C00059301A94FF0904000F022FAE4E700BFA6
:10076C00002C014010B598B00024159416941794E1
:10077C000E940F9410941194129413941494342294
:10078C00214601A802F048FA2848294B03601F2390
:10079C00436084604FF47A73C36004614461846184
:1007AC0001F0EEFC002835D1002315931693179316
:1007BC0015A91E4801F086FE00282ED160230E9349
:1007CC004FF4FA730F93002210921192129213921B
:1007DC0014920EA9154801F03FFD08BB00230193AC
:1007EC0002930393049305934FF4005206920793DC
:1007FC00089309934FF000720A920B930C930D938C
:10080C0001A90A4801F092FE68B90848FFF780FF79
:10081C0018B010BDFFF784FEC6E7FFF781FECDE7E9
:10082C00FFF77EFEDAE7FFF77BFEEEE760040020C1
:10083C00002C014008B51848184B03604FF4E13305
:10084C0043604FF0805383600023C36003610C222C
:10085C0042618361C36103624362836202F0DBF82D
:10086C0070B900210C4802F04EF960B900210A4819
:10087C0002F06EF950B9084802F026F948B908BDE3
:10088C00FFF74EFEEDE7FFF74BFEEFE7FFF748FEF5
:10089C00F1E7FFF745FEF2E7AC0400200038014019
:1008AC0000B589B000230393049305930693079333
:1008BC000268134B9A4202D009B05DF804FB4FF06A
:1008CC00B0431A6E42F480421A661A6E02F48042E9
:1008DC000292029ADA6C42F00202DA64DB6C03F0E8
:1008EC0002030193019BC02303930223049301236E
:1008FC0005930723079303A9024800F051F9DBE79E
:10090C00003801400004004808B50A480A4B03604F
:10091C0008234360022383600361002343618361E6
:10092C00C361036200F009FA00B908BDFFF7F8FDD6
:10093C00FBE700BF3C0500200068004010B588B004
:10094C000023039304930593069307930268134BB8
:10095C009A4201D008B010BD4FF0B044E36C43F0A4
:10096C000103E364E36C03F001030293029B4FF475
:10097C00C0530393022304930A23079303A94FF054
:10098C00904000F00DF9A36D43F08063A365A36D57
:10099C0003F080630193019BDCE700BF006800401B
:1009AC00D458C4500433C4188C42F9D37047036034
:1009BC0004308842FBD370470C488546FFF76AFE2B
:1009CC000B480C490C4A0023FFF7EDFF0B480C4970
:1009DC000023FFF7EEFF0B480B490023FFF7E9FF5D
:1009EC0002F0F6F8FFF720FEFEE7000000000320FF
:1009FC000800002044040020CC2E000844040020F1
:100A0C00380800200000032000000320FEE700004F
:100A1C00114B1B780BB90120704710B5044600F040
:100A2C000BFB0D4B1A784FF47A73B3FBF2F3B0FB5C
:100A3C00F3F000F0A1F868B90F2C01D901200AE0FD
:100A4C00002221464FF0FF3000F05EF8034B1C6093
:100A5C00002000E0012010BD0C0000201000002040
:100A6C0010B5094A136843F480731360032000F037
:100A7C0039F80020FFF7CCFF10B10124204610BD3F
:100A8C000446FFF7F9FDF9E700400058034B1B78CB
:100A9C00034A11680B441360704700BF0C00002020
:100AAC0030080020014B1868704700BF3008002048
:100ABC00014B1868704700BF1000002038B5044681
:100ACC00FFF7F0FF0546B4F1FF3F02D0044B1B7853
:100ADC001C44FFF7E7FF401BA042FAD338BD00BF10
:100AEC000C000020074AD36823F4E0631B041B0CA2
:100AFC00000200F4E060034343F0BF6343F40033AF
:100B0C00D360704700ED00E000B5194BDB68C3F310
:100B1C000223C3F1070CBCF1040F28BF4FF0040CE7
:100B2C0003F1040EBEF1060F18D9033B4FF0FF3E44
:100B3C000EFA0CFC21EA0C0199400EFA03F322EA9E
:100B4C000303194300280BDB0901C9B200F1604013
:100B5C0000F5614080F800135DF804FB0023E5E725
:100B6C0000F00F000901C9B2024B1954F4E700BFA1
:100B7C0000ED00E014ED00E00138B0F1807F0BD205
:100B8C004FF0E0235861054AF02182F82310002031
:100B9C00986107221A6170470120704700ED00E050
:100BAC00F0B500233AE0042400E00024B4403C43B8
:100BBC0002355C4E46F825405B4CD4F88050D4434B
:100BCC0025EA02064F6817F4803F01D042EA050679
:100BDC00554DC5F88060D5F8845004EA05064F6879
:100BEC0017F4003F01D042EA05064F4DC5F884606A
:100BFC002D6804EA05064F6817F4801F01D042EAFD
:100C0C000506494D2E606D682C404E6816F4001F89
:100C1C0001D042EA0504444A546001330A6832FAAE
:100C2C0003F47ED04FF0010C0CFA03FC1CEA020218
:100C3C00F3D04C68651E012D03D9112C01D0122C58
:100C4C0013D185685E000324B44025EA0405CC6802
:100C5C00B4402C438460446824EA0C0C4C68C4F304
:100C6C0000149C4044EA0C044460C6684FEA430CF0
:100C7C00032505FA0CF5EC4326EA050E8D6805FAFA
:100C8C000CF545EA0E05C5604D68022D01D0122DFC
:100C9C0012D1DE08083650F8267003F007054FEA2B
:100CAC00850E0F2505FA0EF527EA05070D6905FADD
:100CBC000EF53D4340F82650056825404C6804F07D
:100CCC00030404FA0CF42C4304604C6814F0805FA9
:100CDC00A3D09D08AE1C134C54F8267003F00304EB
:100CEC00A6000F24B44027EA0407B0F1904F3FF45C
:100CFC005CAF0E4CA0420ED004F58064A0420CD028
:100D0C0004F58064A0420AD004F58064A0423FF44C
:100D1C004AAF07244AE7012448E7022446E70324A4
:100D2C0044E7F0BD000001400008005800040048F2
:100D3C000AB1816170478162704700286DD030B56F
:100D4C0087B0044690F8A9323BB1032384F8A9324A
:100D5C00206801F022FF00231FE080F8A832FFF783
:100D6C00EDFDF2E75A1C02EB820104EBC1010120FC
:100D7C00487002EB820104F8313003EB830104EB81
:100D8C00C101CB8602EB820C04EBCC0C00208CF85E
:100D9C0003008863C8630864D3B260688342E1D3FC
:100DAC00002316E003EB830204EBC202002182F85D
:100DBC00691182F8683182F86B11C2F87811C2F8A7
:100DCC007C1103EB830204EBC202C2F880110133E5
:100DDC00DBB29842E6D8A4465CF8105BEE46BCE861
:100DEC000F00AEE80F00DCF80030CEF80030231D09
:100DFC000ECB284601F0DBFE002384F824300123BF
:100E0C0084F8A932E369012B02D0002007B030BD71
:100E1C00204600F004F80020F8E701207047034654
:100E2C0002680121C0F8E812002083F8E002B2F851
:100E3C0054309BB20B43A2F85430B2F854309BB2EE
:100E4C0043F00203A2F8543070470000024A1368C2
:100E5C0043F480731360704700040058024B186809
:100E6C0000F4C060704700BF0004005830B58DB06E
:100E7C0005468E462B4C94E80F000DF1300C0CE916
:100E8C000F0005AB04F1100207CA83E807000DF14F
:100E9C00040C1C3494E80F008CE80F00BEF5007FA6
:100EAC0007D0002314E00CAA02EB830353F82C5C4C
:100EBC001EE00023032B08D80CAA02EB830252F885
:100ECC00102CAA42EFD20133F4E7002510E00133D5
:100EDC00022B0CD80CAA02EB830252F81C2CAA424F
:100EEC00F5D30CAA02EB830353F82C5C00E000252D
:100EFC000D4A136823F007032B431360FFF7D2FD51
:100F0C000446094B1B6803F00703AB4206D0FFF7FE
:100F1C00C9FD001B0228F4D9032000E000200DB00D
:100F2C0030BD00BFC02D00080040005810B5B028DF
:100F3C0016D90E4BDC6A4FF0B043D3F8083103F0EE
:100F4C000F030B4A52F82300B4FBF0F4FFF786FFB3
:100F5C0001460848A0FB0430800CFFF787FF10BD4A
:100F6C00C0F30310014B53F82040E4E74C2E00086B
:100F7C00EC2D000883DE1B434FF0B0439B6813F04D
:100F8C000C030DD14FF0B0431B6803F0F003B02BF2
:100F9C0004D81B09254A52F823007047B023F8E700
:100FAC00042B3ED0082B10D04FF0B043DB6803F07D
:100FBC000303022B31D0032B0FD14FF0B0431B682E
:100FCC0013F4801F2BD11A4812E04FF0B0431B686A
:100FDC0013F4801F27D0174870474FF0B0431B689D
:100FEC0003F0F003B02B16D81B09104A52F823005B
:100FFC004FF0B042D368C3F3062303FB00F0D36871
:10100C00C3F302130133B0FBF3F0D3685B0F01336E
:10101C00B0FBF3F07047B023E6E70648E8E7054875
:10102C00E6E7044870470248704700BF4C2E0008A2
:10103C000048E8010024F40008B5FFF79DFF4FF0CD
:10104C00B0439B68C3F30313024A52F82330B0FB3E
:10105C00F3F008BDEC2D0008002800F07D8338B5B6
:10106C000446036813F0200F7FD04FF0B042936812
:10107C00D26802F0030213F00C031DD00C2B19D014
:10108C00E369002B00F09E804FF0B042136843F0F0
:10109C0001031360FFF706FD05464FF0B0431B68D4
:1010AC0013F0020F52D1FFF7FDFC401B0228F4D9BC
:1010BC0003205CE3012AE3D14FF0B0431B6813F02B
:1010CC00020F03D0E369002B00F04883606A4FF0F5
:1010DC00B0431B6803F0F003B02B20D8984220D902
:1010EC00FFF724FF002840F03B83636A4FF0B042C7
:1010FC00116821F0F0010B431360216A536823F44B
:10110C007F4343EA01235360FFF796FFAC4B186013
:10111C00AC4B1868FFF77CFC38B3012027E3B023F5
:10112C00DCE74FF0B042136823F0F0031843106073
:10113C00216A536823F47F4343EA01235360606AB6
:10114C00FFF7F4FE0028DFD0012010E3636A4FF0B4
:10115C00B042116821F0F0010B431360216A53680F
:10116C0023F47F4343EA01235360236813F0010FF8
:10117C004AD04FF0B042936803F00C03D26802F0EF
:10118C000302082B36D00C2B32D06368B3F5803FAA
:10119C0063D04FF0B042136823F48033136063685C
:1011AC00002B61D0FFF77EFC05464FF0B0431B6867
:1011BC0013F4003F28D1FFF775FC401B6428F4D9C9
:1011CC000320D4E24FF0B042136823F00103136004
:1011DC00FFF768FC05464FF0B0431B6813F0020F95
:1011EC00C3D0FFF75FFC401B0228F4D90320BEE2FA
:1011FC00032ACAD14FF0B0431B6813F4003F03D04D
:10120C006368002B00F0AE82236813F0020F50D0FD
:10121C004FF0B042936803F00C03D26802F0030263
:10122C00042B33D00C2B2FD0E368002B77D04FF04E
:10123C00B042136843F480731360FFF733FC054628
:10124C004FF0B0431B6813F4806F5ED1FFF72AFC9C
:10125C00401B0228F4D9032089E24FF0B0421368F6
:10126C0043F4803313609AE7FFF71CFC05464FF0FC
:10127C00B0431B6813F4003FC6D0FFF713FC401BB0
:10128C006428F4D9032072E2022ACDD14FF0B04386
:10129C001B6813F4806F03D0E368002B00F06482AA
:1012AC0021694FF0B042536823F0FE4343EA0163D7
:1012BC005360236813F0180F00F0E7806269002A6E
:1012CC0000F0B18013F0100F7ED04FF0B043D3F884
:1012DC00943013F0020F38D14FF0B042D2F8943062
:1012EC0043F00103C2F89430FFF7DCFB05464FF0E6
:1012FC00B043D3F8943013F0020F26D1FFF7D2FB92
:10130C00401B0228F3D9032031E221694FF0B0428F
:10131C00536823F0FE4343EA01635360C9E74FF07F
:10132C00B042136823F480731360FFF7BBFB0546D0
:10133C004FF0B0431B6813F4806FBAD0FFF7B2FBC9
:10134C00401B0228F4D9032011E24FF0B042D2F82E
:10135C00943043F00403C2F89430FFF7A3FB054626
:10136C004FF0B043D3F8943013F0080F06D1FFF7C9
:10137C0099FB401B0328F3D90320F8E1A1694FF036
:10138C00B042D2F8943023F4706343EA0123C2F8DC
:10139C009430D2F8943023F00103C2F89430FFF764
:1013AC0081FB05464FF0B043D3F8943013F0020F95
:1013BC006BD0FFF777FB401B0228F3D90320D6E153
:1013CC0008000020100000204FF0B042D2F89430FA
:1013DC0043F00103C2F89430FFF764FB05464FF06D
:1013EC00B043D3F8943013F0020F06D1FFF75AFB39
:1013FC00401B0228F3D90320B9E14FF0B042D2F8D8
:10140C00943023F00403C2F894304FF0B043D3F877
:10141C00943013F0080F38D0FFF744FB401B03281F
:10142C00F3D90320A3E14FF0B042D2F8943023F06B
:10143C000403C2F89430FFF735FB05464FF0B04378
:10144C00D3F8943013F0080F18D14FF0B042D2F803
:10145C00943023F00103C2F89430FFF723FB0546C8
:10146C004FF0B043D3F8943013F0020F0DD0FFF7C8
:10147C0019FB401B0228F3D9032078E1FFF712FB7C
:10148C00401B0328DAD9032071E1236813F0040F01
:10149C0068D0B74B1B6813F4807F27D0A368012B4F
:1014AC0035D0052B3CD04FF0B043D3F8902022F030
:1014BC000102C3F89020D3F8902022F00402C3F864
:1014CC009020A368DBB3FFF7EDFA05464FF0B0436D
:1014DC00D3F8903013F0020F44D1FFF7E3FA401B1E
:1014EC0041F288339842F1D9032040E1FFF7AEFC7A
:1014FC00FFF7D8FA05469E4B1B6813F4807FCDD1BD
:10150C00FFF7D0FA401B0228F5D903202FE14FF04A
:10151C00B042D2F8903043F00103C2F89030D0E7DB
:10152C004FF0B043D3F8902042F00402C3F890205F
:10153C00D3F8902042F00102C3F89020C1E7FFF7E6
:10154C00B1FA05464FF0B043D3F8903013F0020FC8
:10155C0008D0FFF7A7FA401B41F288339842F1D923
:10156C00032004E1236813F0400F33D0A36AC3B106
:10157C004FF0B042D2F8983043F00103C2F89830E3
:10158C00FFF790FA05464FF0B043D3F8983013F0BC
:10159C00020F1FD1FFF786FA401B0228F3D9032054
:1015AC00E5E04FF0B042D2F8983023F00103C2F8D6
:1015BC009830FFF777FA05464FF0B043D3F89830E0
:1015CC0013F0020F06D0FFF76DFA401B0228F3D977
:1015DC000320CCE0E36A002B00F0C8804FF0B0424F
:1015EC00916801F00C01D268022B23D00C2900F079
:1015FC00C5804FF0B0431A6822F080721A60DA6826
:10160C0022F00302DA60DA6822F0885222F4803287
:10161C00DA60FFF747FA04464FF0B0431B6813F04B
:10162C00007F00F09780FFF73DFA001B0228F3D9EA
:10163C0003209CE002F00303206B83420AD00C29A8
:10164C0000F09A804FF0B0431B6813F0806F22D0EB
:10165C0001208CE002F07003606B8342EFD1C2F387
:10166C000623A06B8342EAD102F47813E06B834229
:10167C00E5D102F06063206C8342E0D102F060425D
:10168C00636C9A42DBD14FF0B0431B6813F0007FC0
:10169C0044D000206BE04FF0B042136823F080730D
:1016AC001360FFF7FFF905464FF0B0431B6813F0CA
:1016BC00007F06D0FFF7F6F9401B0228F4D903206F
:1016CC0055E04FF0B042D3682A491940236B606B48
:1016DC000343A06B43EA0023E06B0343206C0343FA
:1016EC00606C03430B43D360136843F08073136047
:1016FC00D36843F08053D360FFF7D4F904464FF01E
:10170C00B0431B6813F0007F06D1FFF7CBF9001B29
:10171C000228F4D903202AE0002028E04FF0B0433F
:10172C001A6842F080721A60DA6842F08052DA600D
:10173C00FFF7B8F904464FF0B0431B6813F0007F75
:10174C0006D1FFF7AFF9031B022BF4D903200EE0EF
:10175C0000200CE000200AE001207047012006E088
:10176C00012004E0012002E0012000E0002038BD4F
:10177C00000400588C80C1110120F8E70120F6E725
:10178C00002800F0278170B50C460546934B1B686A
:10179C0003F007038B422DD32B6813F0020F3FD1BC
:1017AC002B6813F0200F53D12B6813F0400F6AD124
:1017BC002B6813F0040F40F083802B6813F0080F94
:1017CC0040F097802B6813F0010F00F0DE806B68FF
:1017DC00022B00F0A880032B00F0AD80002B40F012
:1017EC00B2804FF0B042126812F0020F40F0B1809C
:1017FC000120EEE0794A136823F007030B431360D2
:10180C00FFF750F90646754B1B6803F00703A3421C
:10181C00C2D0FFF747F9801B0228F4D90320D8E087
:10182C00AB684FF0B0418A6822F0F00213438B6032
:10183C00FFF738F906464FF0B0439B6813F4803F2E
:10184C00AED1FFF72FF9801B0228F4D90320C0E09A
:10185C006B694FF0B041D1F8082122F0F00213432C
:10186C00C1F80831FFF71EF906464FF0B043D3F824
:10187C00083113F4003F97D1FFF714F9801B0228AD
:10188C00F3D90320A5E0A9694FF0B042D2F8083192
:10189C0023F00F0343EA1113C2F80831FFF702F9E2
:1018AC0006464FF0B043D3F8083113F4803F7FF471
:1018BC007FAFFFF7F7F8801B0228F2D9032088E0EE
:1018CC00EB684FF0B0418A6822F4E06213438B60FE
:1018DC00FFF7E8F806464FF0B0439B6813F4003F5F
:1018EC007FF46BAFFFF7DEF8801B0228F3D90320DF
:1018FC006FE029694FF0B042936823F4605343EAD8
:10190C00C1039360FFF7CEF806464FF0B0439B68D7
:10191C0013F4802F7FF456AFFFF7C4F8801B022816
:10192C00F3D9032055E04FF0B042126812F4003F97
:10193C000FD101204DE04FF0B042126812F0007F41
:10194C0007D1012045E04FF0B042126812F4806FCD
:10195C0042D04FF0B0418A6822F0030213438B60EF
:10196C00FFF7A0F806464FF0B0439B6803F00C035A
:10197C006A68B3EB820F08D0FFF794F8801B41F232
:10198C0088339842EFD9032023E0144B1B6803F0F3
:10199C000703A34215D9114A136823F00703234305
:1019AC001360FFF77FF805460C4B1B6803F0070329
:1019BC00A34206D0FFF776F8401B0228F4D9032087
:1019CC0007E0FFF739FB064B1860FFF771F8FFF7DC
:1019DC001FF870BD012070470120FAE70040005845
:1019EC000800002008B5FFF727FB4FF0B0439B68B9
:1019FC00C3F30223034A52F8233003F01F03D840E9
:101A0C0008BD00BF2C2E000808B5FFF715FB4FF0E2
:101A1C00B0439B68C3F3C223034A52F8233003F04C
:101A2C001F03D84008BD00BF2C2E000870B505461A
:101A3C004FF0B042136823F080631360FFF732F865
:101A4C0004464FF0B0431B6813F0006F06D0FFF74D
:101A5C0029F8001B0228F4D9032400E000240CB15F
:101A6C00204670BD4FF0B0431A6922F4FE4229683B
:101A7C0042EA01221A611A6922F4781269680A434F
:101A8C001A611A6842F080621A60FFF70BF806467A
:101A9C004FF0B0431B6813F0006F05D1FFF702F84D
:101AAC00801B0228F4D90324002CD9D14FF0B0426A
:101ABC00136929690B431361D2E770B505464FF0E2
:101ACC00B042136823F080631360FEF7EBFF04460B
:101ADC004FF0B0431B6813F0006F06D0FEF7E2FF27
:101AEC00001B0228F4D9032400E000240CB120468A
:101AFC0070BD4FF0B0431A6922F4FE42296842EAE5
:101B0C0001221A611A6922F06062A9680A431A61FB
:101B1C001A6842F080621A60FEF7C4FF06464FF066
:101B2C00B0431B6813F0006F05D1FEF7BBFF801BA1
:101B3C000228F4D90324002CD9D14FF0B0421369F8
:101B4C0029690B431361D2E770B505464FF0B042DB
:101B5C00136823F080631360FEF7A4FF04464FF074
:101B6C00B0431B6813F0006F06D0FEF79BFF001B01
:101B7C000228F4D9032400E000240CB1204670BDE7
:101B8C004FF0B0431A6922F4FE42296842EA01225E
:101B9C001A611A6922F06042E9680A431A611A68EC
:101BAC0042F080621A60FEF77DFF06464FF0B043AC
:101BBC001B6813F0006F05D1FEF774FF801B022821
:101BCC00F4D90324002CD9D14FF0B0421369296900
:101BDC000B431361D2E770B50446036813F0400F52
:101BEC002FD0036BB3F5800F21D00AD833B9043052
:101BFC00FFF71CFF064658B1054624E001252E468A
:101C0C0021E0B3F5000F1AD0B3F5400F0CD100262C
:101C1C00236B4FF0B041D1F8882022F440021343DB
:101C2C00C1F8883000250EE001252E460BE04FF060
:101C3C00B042D36843F48033D3600026E8E7002633
:101C4C00E6E700252E46236813F4006F0AD04FF008
:101C5C00B043D3F8905005F44075236CAB4240F080
:101C6C00B7803546236813F0010F09D0A3694FF0F4
:101C7C00B041D1F8882022F003021343C1F8883018
:101C8C00236813F0020F09D0E3694FF0B041D1F88B
:101C9C00882022F440621343C1F88830236813F083
:101CAC00100F0CD0A06A4FF0B041D1F88830020C64
:101CBC00120423EA020343EA0043C1F88830236884
:101CCC0013F0200F0CD0E06A4FF0B041D1F88830FF
:101CDC00020C120423EA020343EA0043C1F88830E1
:101CEC00236813F0040F40F0B480236813F0080F3E
:101CFC0040F0C080236813F4807F13D0636B4FF0E7
:101D0C00B041D1F8882022F040621343C1F88830EA
:101D1C00636BB3F1006F00F0BE80636BB3F1806F47
:101D2C0000F0BE80236813F4007F17D0A36BB3F1CF
:101D3C00804F05D0B3F1004F02D0002B40F0B8809B
:101D4C004FF0B041D1F8882022F040421343C1F843
:101D5C008830A36BB3F1C05F00F0BC80236813F430
:101D6C00806F13D0E36B4FF0B041D1F8882022F094
:101D7C0040521343C1F88830E36BB3F1005F00F0BD
:101D8C00B080E36BB3F1805F00F0B080236813F494
:101D9C00805F09D0636C4FF0B041D1F8942022F4ED
:101DAC0040421343C1F89430236813F4005F0DD004
:101DBC00E26C4FF0B043596A21F030010A435A6289
:101DCC00A26C596A21F003010A435A62284670BD7D
:101DDC00FFF73CF85DB9236C4FF0B041D1F890207F
:101DEC0022F440721343C1F8903035463AE74FF075
:101DFC00B043D3F89020D3F8901041F48031C3F85D
:101E0C009010D3F8901021F48031C3F8901022F484
:101E1C004072216C0A43C3F89020D3F8903013F031
:101E2C00010F12D0FEF73EFE05464FF0B043D3F83B
:101E3C00903013F0020F0AD1FEF734FE401B41F232
:101E4C0088339842F1D903250CE735460AE7354625
:101E5C0008E7236A4FF0B040D0F88820190901F444
:101E6C007F2122EA01021B0103F47F231343C0F8F4
:101E7C0088303AE7636A4FF0B040D0F888201909EF
:101E8C0001F47F2122EA01021B0103F47F23134397
:101E9C00C0F888302EE7CB6843F08073CB603CE70A
:101EAC00201DFFF70AFE00283FF43CAF054639E73A
:101EBC0023F080534FF0B042D2F8881021F040410B
:101ECC00C2F88810D2F8881021F040610B43C2F898
:101EDC0088303EE74FF0B042D36843F08073D36054
:101EEC003CE7CB6843F48033CB604AE7201DFFF717
:101EFC002BFE00283FF44AAF054647E74FF0B042AF
:101F0C00136843F0040313607047000030B4036A95
:101F1C0023F001030362036A4568826922F480326C
:101F2C0022F073020C68224323F002038C682343D3
:101F3C00154CA04207D004F5E054A04203D0A4F500
:101F4C008064A04205D123F00803CC68234323F01E
:101F5C0004030D4CA04207D004F5C054A04203D09A
:101F6C0004F58064A04207D125F4407C4C6944EA16
:101F7C000C0C8D6945EA0C05456082614A68426328
:101F8C00036230BC704700BF002C014030B4036AC0
:101F9C0023F480730362036A4468C26922F48032BA
:101FAC0022F073020D682A4323F400738D6843EA10
:101FBC000523124DA84219D0104DA84207D005F5A3
:101FCC00C055A84203D005F58065A84207D124F47A
:101FDC0040544D6944EA05148D6944EA0514446083
:101FEC00C2614A68C263036230BC704723F4006369
:101FFC00CD6843EA052323F48063DDE7002C014020
:10200C0030B4036A23F480530362026A4468C369E0
:10201C0023F0807323F4E6430D6843EA052322F48E
:10202C0000528D6842EA05320B4DA84207D005F5E7
:10203C00C055A84203D005F58065A84204D124F40C
:10204C0080444D6944EA85144460C3614B68036461
:10205C00026230BC704700BF002C014030B4036AF0
:10206C0023F480330362036A4468426D22F48032A5
:10207C0022F070020D682A4323F400338D6843EA82
:10208C0005430B4DA84207D005F5C055A84203D017
:10209C0005F58065A84204D124F480344D6944EAE6
:1020AC000524446042654A688265036230BC70470F
:1020BC00002C014030B4036A23F480130362026ADB
:1020CC004468436D23F0807323F4E0430D6843EAC6
:1020DC00052322F400128D6842EA05520B4DA842EA
:1020EC0007D005F5C055A84203D005F58065A84278
:1020FC0004D124F480244D6944EA8524446043656A
:10210C004B68C365026230BC704700BF002C0140B5
:10211C0003681A4A904202D0B0F1804F03D123F0E9
:10212C0070034A681343154A90420AD0B0F1804FAD
:10213C0007D002F5C052904203D002F58062904263
:10214C0003D123F44073CA68134323F080034A6914
:10215C00134303608B68C3620B688362074B98421E
:10216C0007D003F5C053984203D003F5806398421F
:10217C0001D10B690363012343617047002C0140BB
:10218C0060B310B5044690F83D3013B3022384F8C5
:10219C003D30214651F8040BFFF7BAFF012384F8B8
:1021AC00483084F83E3084F83F3084F8403084F86E
:1021BC00413084F8423084F8433084F8443084F859
:1021CC00453084F8463084F8473084F83D300020A0
:1021DC0010BD80F83C30FEF785FAD7E70120704738
:1021EC0030B4036A23F010030362036A4468826903
:1021FC0022F0807222F4E6420D6842EA052223F0B6
:10220C0020038D6843EA0513124DA84219D0114DD5
:10221C00A84207D005F5C055A84203D005F5806546
:10222C00A84207D124F440644D6944EA85048D69C1
:10223C0044EA8504446082614A688263036230BC6C
:10224C00704723F08003CD6843EA051323F0400365
:10225C00DDE700BF002C014038B590F83C30012B75
:10226C0000F08C8004460D46012380F83C30142A83
:10227C001ED8DFE802F00B1D1D1D211D1D1D351D77
:10228C001D1D481D1D1D5C1D1D1D6F000068FFF7E9
:10229C003DFE2268936943F00803936122689369B9
:1022AC0023F0040393612268936929690B439361BA
:1022BC00002084F83C0038BD0068FFF791FF2268CD
:1022CC00936943F4006393612268936923F48063F8
:1022DC00936122689369296943EA01239361E7E7D3
:1022EC000068FFF753FE2268D36943F00803D361FB
:1022FC002268D36923F00403D3612268D369296966
:10230C000B43D361D4E70068FFF77AFE2268D369E8
:10231C0043F40063D3612268D36923F48063D361EF
:10232C002268D369296943EA0123D361C0E70068B5
:10233C00FFF794FE2268536D43F00803536522683F
:10234C00536D23F0040353652268536D29690B43C5
:10235C005365ADE70068FFF7ADFE2268536D43F49B
:10236C00006353652268536D23F4806353652268C0
:10237C00536D296943EA0123536599E702209AE7D3
:10238C0001F01F01012303FA01FC036A23EA0C0389
:10239C000362036A02FA01F10B4303627047000007
:1023AC0010B50446084671BB94F83E30DBB2013BD5
:1023BC0018BF0123002B7BD100284FD1022384F8B6
:1023CC003E30012201462068FFF7DAFF23683B4AC2
:1023DC00934207D002F5C052934203D002F58062BB
:1023EC00934203D15A6C42F400425A642368334A34
:1023FC0093424FD0B3F1804F4CD01A6842F0010297
:10240C001A60002055E004290CD0082911D00C29A1
:10241C0016D010291BD094F84330DBB2013B18BF07
:10242C000123C7E794F83F30DBB2013B18BF01230F
:10243C00C0E794F84030DBB2013B18BF0123B9E789
:10244C0094F84130DBB2013B18BF0123B2E794F89A
:10245C004230DBB2013B18BF0123ABE7042809D0A3
:10246C0008280BD00C280DD010280FD0022384F88C
:10247C004330A6E7022384F83F30A2E7022384F816
:10248C0040309EE7022384F841309AE7022384F817
:10249C00423096E799680A4A0A40062A0AD0B2F5F1
:1024AC00803F09D01A6842F001021A60002000E057
:1024BC00012010BD0020FCE70020FAE7002C0140B1
:1024CC000700010090F83C30012B2BD030B40123D5
:1024DC0080F83C30022380F83D30026853689468E1
:1024EC00114DAA4219D023F070030D682B43536091
:1024FC0003680D4A934202D0B3F1804F04D124F00B
:10250C0080048A6814439C60012380F83D300023CA
:10251C0080F83C30184630BC704723F470034D688B
:10252C002B43E0E702207047002C014090F83C3030
:10253C00012B46D010B4012380F83C30CB6823F437
:10254C0040738A68134323F480634A68134323F46B
:10255C0000630A68134323F480530A69134323F47A
:10256C0000534A69134323F480430A6B134323F447
:10257C0070238A6943EA02430268134CA24209D0D1
:10258C00114CA2420BD05364002380F83C30184607
:10259C0010BC704723F08053CC692343F0E723F43D
:1025AC0070038C6A43EA045323F080730C6A234350
:1025BC0023F000734C6A234323F00053C96A0B4386
:1025CC00E1E70220704700BF002C014070B50446C3
:1025DC00016883680269134342691343C269134358
:1025EC0008688B4A024013430B602268536823F43B
:1025FC004053E1680B435360A1692268854B9A42B2
:10260C0001D0236A1943936823F06E4323F430639B
:10261C000B4393602268D36A23F00F03616A0B4368
:10262C00D36222687C4B9A4214D07A4B9A4225D0C2
:10263C00102378498A4240D0E069B0F5004F7AD037
:10264C00013B072B00F2D680DFE803F0A5A3D4BE34
:10265C00D4D4D4C14FF0B043D3F8883003F0030383
:10266C00032B09D8DFE803F002041F060123E0E77F
:10267C000423DEE70823DCE71023DAE74FF0B0434E
:10268C00D3F8883003F44063B3F5006F0DD005D850
:10269C006BB1B3F5806F0CD10423CAE7B3F5406F6F
:1026AC0009D10823C5E70223C3E70223C1E70023AE
:1026BC00BFE71023BDE71023BBE7082B00F28A808D
:1026CC00DFE803F0088837883488888805004FF4E1
:1026DC00004003E0FFF786F900287DD0626A4F4B7B
:1026EC0033F81220B0FBF2F3656805EB4501994213
:1026FC0074D8B3EB053F73D8002633463146FDF74B
:10270C0037FD090241EA106100026B08C0182A4625
:10271C00334641F10001FDF72BFDA0F54072404B13
:10272C009A425FD82368D860304664E0FEF724FCF8
:10273C00D2E73C48D2E7013B072B55D8DFE803F042
:10274C00060454265454540A364803E0FFF75CF947
:10275C0000284BD0626A314B33F81230B0FBF3F0E7
:10276C006268530803EB4000B0FBF2F080B2A0F1BA
:10277C0010024FF6EF739A423AD820F00F03C0F3D1
:10278C00420018432368D860002034E0FEF7F4FBC5
:10279C00DEE7244802E0FFF737F9A8B3626A1F4B63
:1027AC0033F81230B0FBF3F0636800EB5300B0FB6E
:1027BC00F3F080B2A0F110024FF6EF739A4225D8D5
:1027CC002368D860002016E0FEF7D6FBE5E74FF44F
:1027DC000040E3E701200EE000200CE001200AE0BD
:1027EC00012008E0012006E0012004E0002002E0C6
:1027FC00012000E001200123A4F86A30A4F868301D
:10280C0000232367636770BD0020F4E70120F2E723
:10281C00F369FFCF00800040003801408C2E000887
:10282C00FFFC0F000024F400836A13F0010F06D0A4
:10283C000268536823F40033C16A0B435360836A04
:10284C0013F0020F06D00268536823F48033016B37
:10285C000B435360836A13F0040F06D0026853686D
:10286C0023F48023416B0B435360836A13F0080FEE
:10287C0006D00268536823F40043816B0B4353600A
:10288C00836A13F0100F06D00268936823F4805308
:10289C00C16B0B439360836A13F0200F06D0026860
:1028AC00936823F40053016C0B439360836A13F019
:1028BC00400F0AD00268536823F48013416C0B4319
:1028CC005360436CB3F5801F0BD0836A13F0800FF9
:1028DC0006D00268536823F40023C16C0B43536089
:1028EC0070470268536823F4C003816C0B43536038
:1028FC00EBE72DE9F84305460F4616469946DDF8F9
:10290C0020802C68E46937EA04030CBF4FF0010CFB
:10291C004FF0000CB44541D1B8F1FF3FF1D0FEF7B8
:10292C00C1F8A0EB0900404524D8B8F1000F21D024
:10293C002B681A6812F0040FE3D0DA6912F4006FF6
:10294C00DFD04FF400621A622A68136823F4D07344
:10295C0013602A68936823F0010393602023C5F861
:10296C008430C5F88830C5F88C30002385F8803069
:10297C00032014E02A68136823F4D07313602A68C8
:10298C00936823F0010393602023C5F88430C5F8C5
:10299C008830002385F88030032000E00020BDE85B
:1029AC00F88330B583B004460023C0F88C30FEF7B2
:1029BC0079F805462268126812F0080F0FD12368C7
:1029CC001B6813F0040F18D12023C4F88430C4F80A
:1029DC0088300020E06684F8800003B030BD6FF0D2
:1029EC007E430093034600224FF400112046FFF76C
:1029FC0080FF0028E3D00320EFE76FF07E430093C5
:102A0C002B4600224FF480012046FFF772FF00286E
:102A1C00DAD00320E1E778B310B50446D0F884305F
:102A2C000BB32423C4F884302268136823F0010309
:102A3C0013602046FFF7CAFD012813D0A36ABBB967
:102A4C002268536823F4904353602268936823F000
:102A5C002A0393602268136843F001031360204635
:102A6C00FFF79FFF10BD80F88030FDF719FFD8E706
:102A7C002046FFF7D9FEE3E701207047436E2BB9E0
:102A8C000123A0F86A30A0F86830704730B40368AE
:102A9C009A68C2F342629968490F094D6B5CDB007E
:102AAC00084C615C93FBF1F3A0F86A30AB5CDB0083
:102ABC00A25C93FBF2F3A0F8683030BC704700BF07
:102ACC00AC2E0008A42E000890F88030012B18D0F2
:102ADC00012380F880302423C0F8843003681A68FE
:102AEC00196821F00101196022F00052002343669D
:102AFC0001680A602022C0F8842080F880301846D3
:102B0C0070470220704738B590F88030012B1DD0EB
:102B1C000446012380F880302423C0F884300368F5
:102B2C001D681A6822F001021A600268936823F08B
:102B3C00604319439160FFF7A1FF23681D602023B8
:102B4C00C4F88430002084F8800038BD0220FCE7F3
:102B5C0038B590F88030012B1DD00446012380F845
:102B6C0080302423C0F8843003681D681A6822F072
:102B7C0001021A600268936823F060631943916044
:102B8C00FFF77CFF23681D602023C4F884300020ED
:102B9C0084F8800038BD0220FCE7B0F8403023F404
:102BAC007E535B045B0CA0F840300020704784B06F
:102BBC00844601A880E80E000123ACF840300020C8
:102BCC00ACF84000ACF84400ACF8500004B07047CE
:102BDC0070B50D4E0D4D761BB61006D0002455F871
:102BEC00043B01349847A642F9D1094E094D761B96
:102BFC0000F0D4F8B61006D0002455F8043B01348C
:102C0C009847A642F9D170BDC02E0008C02E00080E
:102C1C00C82E0008C02E0008830730B548D0541EBB
:102C2C00002A3FD0CAB2034601E0013C3AD303F874
:102C3C00012B9D07F9D1032C2DD9CDB245EA0525E1
:102C4C000F2C45EA054536D9A4F1100222F00F0CE1
:102C5C0003F1200EE6444FEA121C03F1100242E984
:102C6C00045542E9025510327245F8D10CF10102BB
:102C7C0014F00C0F03EB021204F00F0C13D0ACF198
:102C8C00040323F003030433134442F8045B93421C
:102C9C00FBD10CF003042CB1CAB21C4403F8012B79
:102CAC009C42FBD130BD64461346002CF4D1F9E7AD
:102CBC0003461446BFE71A46A446E0E7024B13B19D
:102CCC00024800F005B8704700000000E92C00082D
:102CDC00002301461A46184600F01AB838B5084BBE
:102CEC00084D5B1B9C1007D0043B1D44013C55F860
:102CFC0004399847002CF9D1BDE8384000F054B89D
:102D0C00CC2E0008C82E0008704700BF704700BFCB
:102D1C002DE9F047DFF87CA00646DAF8000098466B
:102D2C000F469146FFF7F0FF1B4B1B68D3F8484149
:102D3C0024B365681F2D26DC5EB96B1C0235DAF8EE
:102D4C000000636044F82570FFF7E0FF0020BDE849
:102D5C00F08704EB85010123C1F88890D4F8882111
:102D6C00AB401A43022EC4F88821C1F80881E4D183
:102D7C00D4F88C211343C4F88C31DEE703F5A67428
:102D8C00C3F84841D5E7DAF80000FFF7BFFF4FF072
:102D9C00FF30DCE740040020B42E0008F8B500BF7B
:102DAC00F8BC08BC9E467047F8B500BFF8BC08BC20
:042DBC009E46704778
:102DC0001200000024000000360000004000000057
:102DD000060000000C0000001000000000000000D1
:102DE00001000000020000000300000001000000DC
:102DF00003000000050000000100000001000000C9
:102E0000060000000A000000200000000200000090
:102E10000400000008000000100000004000000056
:102E2000800000000001000000020000000000001F
:102E30000000000000000000000000000100000091
:102E4000020000000300000004000000A086010052
:102E5000400D0300801A060000350C0040420F00B0
:102E600080841E0000093D0000127A000024F40056
:102E700000366E010048E801006CDC020000000032
:102E8000000000000000000000000000010002003F
:102E90000400060008000A000C001000200040009A
:102EA000800000010804020408010101010101037E
:082EB0000701000018000020DA
:082EB800F4D2FF7F01000000CD
:082EC000C92C000861010008A3
:042EC8003D010008C0
:102ECC0000093D000100000010000000000000009F
:102EDC0000000000040300206C030020D403002039
:102EEC0000000000000000000000000000000000D6
:102EFC0000000000000000000000000000000000C6
:102F0C0000000000000000000000000000000000B5
:102F1C0000000000000000000000000000000000A5
:102F2C000000000000000000000000000000000095
:102F3C000000000000000000000000000000000085
:102F4C000000000000000000000000000000000075
:102F5C000000000000000000000000000000000065
:102F6C000000000000000000000000000000000055
:102F7C000000000000000000010000000000000044
:102F8C000E33CDAB34126DE6ECDE05000B00000009
:102F9C000000000000000000000000000000000025
:102FAC000000000000000000000000000000000015
:102FBC000000000000000000000000000000000005
:102FCC0000000000000000000000000000000000F5
:0C32FC000000000000000000340800206A
:04000005080009C521
:00000001FF
